:0600000002008602AD3A89
:01000B0032C2
:0100130032BA
:03001B00023F3968
:0100230032AA
:03002B0002350497
:01003300329A
:01003B003292
:01004300328A
:01004B003282
:01005300327A
:01005B003272
:01006300326A
:01006B003262
:03007300023FBA8F
:01007B003252
:0300830002AC903C
:0300ED000200F01E
:0500F00012011180FE69
:0400F50043FDFB22AA
:0300F900D286228A
:0300FC00C2862297
:0300FF00D2872283
:03010200C287228F
:03010500D284227F
:03010800C284228C
:03010B00D281227C
:03010E00C2812289
:070111001200F51200F912C3
:0601180000FF12010512B8
:0E011E00378CE4C0E0C0E0C0E0E4C0E0E4C024
:0D012C00E0C0E0C0E074DCC0E0E4C0E074BE
:0A0139001DC0E074F7C0E07480C040
:0E014300E090015712082FE58124F4F5811297
:060151000E1890000022D0
:0A015700C010E581F5102445F58184
:0A016100A81008087600A81008088E
:0B016B00087600E5102404F8760090F0
:0E017600F883E4F0A3F0A3F090C20075F0014E
:0B018400E412390D900064120D2B12E4
:09018F00557A12DFFF90006412A2
:020198000D2B2D
:0C019A00E5102405F8760090F886E4F0EB
:0E01A600A3F0A3F012010E900032120D2BA850
:0C01B40010080808E6707990F889E0FE59
:0E01C000A3E0FFA3E0FBEE4F4B7069C0E0C070
:0E01CE00E07582021244D3AB82AE83AFF0150F
:0E01DC0081158190F889EBF0A3EEF0A3EFF00F
:0A01EA00EB4E4F60397476C0E074EC
:0C01F400F8C0E0E4C0E08B828E838FF046
:0E0200001247C3AB82158115811581BB011217
:0C020E00A810080808760190F883E4F0BE
:06021A00A3F0A3F0800E2A
:0802200090F722123926800636
:0602280090F731123926A7
:06022E00900064120D2B8C
:0E02340090F889E0FBA3E0FEA3E0FFEB4E4F45
:05024200700302030936
:0E024700740AC0E0E4C0E08B828E838FF01258
:0D02550053AFAB82AE83AFF01581158190E1
:0E026200F883EBF0A3EEF0A3EFF09000321261
:0E0270000D2B90F883E0FBA3E0FEA3E0FFEB74
:0E027E004E4F606A12010B900032120D2B9051
:0C028C00F883E0FCA3E0FBA3E0FAE5101F
:0E0298002441F8742C2CF6E43B08F608A6026C
:0E02A60074202CFEE43BFF8E828F838AF012C0
:0902B400F571FEA312F571FFE5DE
:0C02BD00102441F8EE26FEEF0836FF0882
:0D02C90086028E828F838AF012F571FEE5A9
:0C02D600102405F8A606900064120D2B01
:0A02E20012010EA8100808087600AB
:0E02EC0090F883E0FBA3E0FCA3E0FE8B828C85
:0E02FA00838EF0124E5090F883E4F0A3F0A330
:01030800F004
:0C030900900064120D2BE5102405F8E6AE
:0C03150024FD5045E5102405F87600A8F2
:0C03210010080808760090F883E0FBA3A9
:0E032D00E0FCA3E0FE8B828C838EF0124E501B
:0E033B0090F883E4F0A3F0A3F090F889E0FBC3
:0D034900A3E0FCA3E0FE8B828C838EF012FB
:080356004796900032120D2BB6
:05035E00E5102406F883
:0A036300E5102405F9B7010280033C
:03036D0002062A5B
:0E0370002080F0C00012010BD000900064C08D
:0E037E0000120D2BD00090F889E0FBA3E0FCEC
:0B038C00A3E0FEEB4C4E7003020615D0
:0E0397008B828C838EF0C000124BEDAF82AAD9
:0E03A50083ADF0D00090F886EFF0A3EAF0A34D
:0A03B300EDF0EF4A4D70030205B5AE
:0E03BD0088027D007F408A828D838FF0C00011
:0E03CB0012E4E5D000900064C000120D2BD0AB
:0803D900008602BA88028003CD
:0303E1000204878C
:0203E4007E0099
:0803E600EE24C85003020529B2
:0C03EE0090F886E0FAA3E0FBA3E0FCE539
:0C03FA0010243EF9742C2AF7E43B09F7AC
:0E04060009A70474222AFDE43BFB8D828B8340
:0C0414008CF0E5102444F912F571F7A3F8
:0C04200012F57109F7E5102444F974018D
:0E042C0027FFE40937FA8D828B838CF0EF12E4
:08043A00F089A3EA12F089E544
:0A04420010243EF9C000E510244428
:0E044C00F8E627FA08E60937FD098707D00011
:0D045A00EE28F987038A828D838FF0EB1264
:0C046700F089BBE109E5102404F97701DD
:02047300800EF9
:0C047500BBFE0BE5102404F9B7010302E4
:0204810005294B
:040483000E0203E67C
:020487007E00F5
:08048900EE24CC50030205290A
:0C04910090F886E0FAA3E0FBA3E0FCE595
:0C049D0010243EF9742C2AF7E43B09F708
:0E04A90009A70474222AFDE43BFB8D828B839D
:0C04B7008CF0E5102444F912F571F7A355
:0C04C30012F57109F7E5102444F97401EA
:0E04CF0027FFE40937FA8D828B838CF0EF1241
:0804DD00F089A3EA12F089E5A1
:0A04E50010243EF9C000E510244485
:0E04EF00F8E627FA08E60937FD098707D0006E
:0D04FD00EE28F987038A828D838FF0EB12C1
:0C050A00F089BBE109E5102404F9770139
:02051600800D56
:0C051800BBFE0AE5102404F9B7010280C4
:0105240004D2
:040525000E02048935
:0E052900900032C000120D2BD00090F889E037
:0E053700FAA3E0FDA3E0FFC00090F886E0C04C
:0C054500E0A3E0C0E0A3E0C0E07469C0E7
:0C055100E074F8C0E0E4C0E08A828D8312
:0E055D008FF0124E68AA82E58124FAF581D053
:0C056B0000BA0123E5102405F97700A96F
:0C05770010090909770090F886E4F0A351
:0E058300F0A3F0900032C000120D2BD00080CB
:010591002D3C
:0E05920090F886E0FAA3E0FDA3E0FF8A828DD8
:0E05A000838FF0C000126238D00090F886E41D
:0705AE00F0A3F0A3F0800AA6
:0A05B50090F74BC000123926D00069
:0E05BF0090F886E0FAA3E0FDA3E0FF8A828DAB
:0E05CD00838FF0C000124E50D00090F886E4EC
:0C05DB00F0A3F0A3F0E5102404F9770071
:0E05E70090F889E0FAA3E0FDA3E0FF8A828D80
:0E05F500838FF0C000124796D00090F889E482
:0E060300F0A3F0A3F0900064C000120D2BD005
:04061100000203637D
:08061500EB4C4E60030203638D
:0B061D0090F758C000123926D00002F0
:0206280003636A
:0A062A00E5102405F9B70202800371
:0306340002019A26
:0E0637002080F0C00012010BD00090F889E086
:0E064500FAA3E0FBA3E0FCEA4B4C60D9C00036
:0E065300740AC0E0E4C0E08A828B838CF0124F
:0E06610053AFAA82AB83ACF015811581D00097
:0E066F0090F883EAF0A3EBF0A3ECF0900032D9
:0E067D00C000120D2BD00090F883E0FAA3E02D
:0C068B00FBA3E0FCEA4B4C7003020815D6
:0E06970074222AFDE43BFE8C078D828E838F39
:0E06A500F012F571FDA312F571FE74202AFA11
:0E06B300E43BFB8A828B838CF012F571FAA374
:0E06C10012F571FBEDC39AFD8D02900032C060
:0E06CF0002C000120D2BD000D00276E17401A3
:0E06DD0028F97710740228F97780740328F941
:0E06EB007700740428F97703740528F9740465
:0E06F9002AFBF7740628F977D1740728F977E1
:0E07070001740828F9A702740928F97754A98B
:0A071500100909C000E5102441F8A6
:09071F00E7F6D000A91009770AE1
:0C0728008A057E00740A2DFDE43EFEA947
:0C073400100987077B00C3EF9DEB648079
:0C0740008EF063F08095F0505BC002A9C1
:0C074C001009E728F990F883E0FDA3E015
:0E075800FEA3E0FF742C2DFAE43EFC8F037428
:0D076600202DFDE43EFE8D828E838FF0126B
:0B077300F571FDA312F571FEC000E55A
:0C077E00102441F8E62DD0002AFAE43CDB
:0D078A00FC8A828C838BF012F571FAF7E582
:0A079700102441F907A9100907D04A
:0307A1000280844F
:0E07A400740A2AFA28F977FE900032C000127B
:0E07B2000D2BD00088027B007C408A828B8356
:0E07C0008CF0C00012EAFDD000900064C00072
:0C07CE00120D2BD000A91009097700E5DE
:0C07DA00102405F9770090F883E4F0A3E8
:0E07E600F0A3F090000075F000C000124E501D
:0E07F400D00090F889E0FAA3E0FBA3E0FC8AB5
:0D080200828B838CF0C000124796D000A9B5
:06080F0010090909770041
:0D081500C00012010ED000900032C0001291
:080822000D2BD00002062A850F
:05082A001081D0102236
:05F71D005465726D004F
:0EF7220042696E64206661696C65642E0D0A92
:01F7300000D8
:0EF73100536F636B6574206372656174696F5A
:0CF73F006E206661696C65642E0D0A0086
:0DF74B004E6F206275666665722E0D0A0015
:0DF758004E6F20736F636B65742E0D0A00F9
:0DF8490004FFFFFFFFFFFFFFFF0000FE00B8
:0DF856000400000000000000000000B3F0FE
:03F86300000000A2
:03F866000000009F
:03F869000000009C
:0500DF0090E066E4F072
:0A082F00C010858110C082C083054F
:0C0839008105810581E51024F9F8868214
:0D084500088683121A44AC82AD83AEF0A881
:0C08520010080808A60408A60508A60661
:0C085E00A810080808B6000B08B6000738
:07086A0008B60003020A2199
:0A087100E51024F5F8E6C0E0E510FC
:0E087B0024FBF8E6C0E008E6C0E008E6C0E0B6
:0C088900E51024F9F8E6C0E008E6C0E045
:0C089500A81008080886820886830886E0
:0C08A100F01217BCE58124FAF581A810C4
:0E08AD00080808742026FFE40836FA088603BF
:0E08BB008F828A838BF012F571FFA312F57104
:0C08C900FAA312F571FBE51024F6F8E626
:0C08D500C0E008E6C0E008E6C0E0A810A3
:0E08E10008E6C0E008E6C0E08F828A838BF054
:0E08EF00123187AA82AB83AFF0E58124FBF5BE
:0C08FD0081A8100808088682088683087D
:0E09090086F0EA12F089A3EB12F089A3EF1238
:0E091700F089C0E0C0A8C2AF90F890E02401C3
:0C092500F090F890E0FABA0117A8100852
:0E093100080890F88CE6F008A3E6F008A3E6AC
:06093F00F0121929803FAF
:0E09450090F895E0FA703890F88CE0FAA3E094
:0E095300FBA3E0FF741F2AFAE43BFB8A828BB1
:0C096100838FF012F571FAE51024F5F810
:0B096D00C3E69A4012A810080808908A
:0C097800F88CE6F008A3E6F008A3E6F017
:0C098400A810080808741F26FAE40836C2
:0E099000FB0886078A828B838FF012F571FABE
:0E099E0090F893E0FBC39A500590F893EAF0AE
:0C09AC00A810080808742326FBE4083695
:0E09B800FF08860490E066E0FD8B828F838C42
:0C09C600F012F08990E06674012DF090B2
:0D09D200F894E0FBC39A500590F894EAF009
:0C09DF00A810080808740326FBE4083682
:0C09EB00FC088605EA75F00CA42400FA54
:0C09F700E434E0FE7F00C003C004C00533
:0E0A03008A828E838FF0122BD41581158115F7
:0E0A1100817A01D0E053E080E5E042A8D0E019
:020A1F00800253
:020A21007AFF5A
:0C0A2300BA0163E51024F2F8860308868F
:0E0A2F0004088605BB0008BC0005BD0002805F
:010A3D001B9D
:0C0A3E008B828C838DF0A810080808E65D
:0D0A4A0012F089A308E612F089A308E61255
:020A5700F08924
:0E0A590090F895E0FB602990F88CE0FBA3E09C
:0E0A6700FCA3E0FD741F2BFBE43CFC8B828C97
:0C0A7500838DF012F571FBE51024F5F8FC
:080A8100C3EB9650031234266A
:080A89008A82851081D0102241
:0A0A9100C010E581F5102406F58180
:0D0A9B00AA82AB83ACF0C0E0C0A8C2AF904F
:0E0AA800F88CE0FDA3E0FEA3E0FFEAB5050E2A
:0E0AB600EBB5060AECB507067A007B007C0063
:0B0AC400E4BA0007BB0004BC00010402
:0C0ACF00FD601290F88CA81008E0F6A35F
:090ADB00E008F6A3E008F6800B28
:0B0AE400A81008A60208A60308A6043C
:0C0AEF00C005A8100886020886030886CF
:0E0AFB000474032AFEE43BFF8C058E828F8379
:0E0B09008DF0C002C003C004C005122FC6D07C
:0C0B170005D004D003D002E5102404F83F
:0C0B230074112AF6E43B08F608A604E56D
:0C0B2F00102404F8740B26FDE40836FEC8
:0E0B3B000886078D828E838FF012F571FDA360
:0E0B490012F571FEA312F571FFED4E4FD005AF
:0C0B57006020E5102404F88682088683E4
:0E0B63000886F0C002C003C004C005122FC6F1
:080B7100D005D004D003D0022E
:0E0B790074032AFAE43BFBC005C002C003C0AF
:0E0B87000490E05A75F000122BD415811581F0
:0E0B95001581D00590F88FE02401F0D0E053D8
:0E0BA300E080E5E042A8D0E090F895E0FA602E
:070BB10006ED60031234267B
:060BB800851081D010221F
:0A0BBE00C010858110C082C083C002
:0B0BC800F00581E5102404F87600120F
:0C0BD3000E6AA810088682088683088637
:0B0BDF00F012F571FEA312F571FFE5A6
:0C0BEA001024FCF8E62EFD08E63FFA8D12
:0E0BF6000390F891E0FCA3E0FDC3EC9EED9FA0
:0E0C0400501FC3EB9EEA9F503590F891E0FC24
:0C0C1200A3E0FDC3EC9BED9A5026E5101A
:070C1E002404F87601801D9B
:0E0C2500C3EB9EEA9F400F90F891E0FCA3E025
:080C3300FDC3EC9BED9A500794
:070C3B00E5102404F8760126
:0C0C4200A8100886820886830886F0EB64
:090C4E0012F089A3EA12F089E515
:0A0C5700102404F8E67003020D1AE1
:0E0C610090F88CE0FCA3E0FDA3E0FE74032CF1
:0E0C6F00FCE43DFD8C828D838EF0C002C0033C
:0E0C7D00122FC6D003D00290F88CE0FCA3E04A
:0E0C8B00FDA3E0FE74032CFCE43DFD8C828D85
:0D0C9900838EF0EB12F089A3EA12F089902F
:0E0CA600F891E0FCA3E0FDC3EB9CEA9D503406
:0E0CB40090F88CE0FAA3E0FBA3E0FC74032AA6
:0E0CC200FAE43BFB90E04BE0FDA3E0FEA3E074
:0E0CD000FFC002C003C0048D828E838FF0121D
:0A0CDE002D931581158115818032D8
:0E0CE80090F88CE0FAA3E0FBA3E0FC74032A72
:0E0CF600FAE43BFB90E048E0FDA3E0FEA3E043
:0E0D0400FFC002C003C0048D828E838FF012E8
:080D12002D9315811581158157
:0B0D1A00120E83E582FA7003123426EB
:060D2500851081D01022B0
:0D0D2B00AA82AB837C00EA4B7003020E111C
:0E0D3800C002C003120E6AD003D00290F891E0
:0E0D4600E0FDA3E0FEEA2DFAEB3EFB90F88CF8
:0E0D5400E0FDA3E0FEA3E0FF74032DFDE43EEE
:0E0D6200FE8D828E838FF0C002C003122FC65A
:0E0D7000D003D00290F88CE0FDA3E0FEA3E0DB
:0E0D7E00FF74032DFDE43EFE8D828E838FF008
:0A0D8C00EA12F089A3EB12F089903F
:0E0D9600F891E0FDA3E0FEC3EA9DEB9E503411
:0E0DA40090F88CE0FAA3E0FBA3E0FD74032AB4
:0E0DB200FCE43BFB90E04BE0FEA3E0FFA3E07F
:0E0DC000FAC004C003C0058E828F838AF01231
:0A0DCE002D931581158115818032E7
:0E0DD80090F88CE0FAA3E0FBA3E0FD74032A80
:0E0DE600FCE43BFB90E048E0FEA3E0FFA3E04E
:0E0DF400FAC004C003C0058E828F838AF012FD
:080E02002D9315811581158166
:070E0A00120E83AA828A0484
:060E1100EC700302342620
:010E170022B8
:0E0E1800E4C0E0C0E0C0E0E4C0E0E4C0E0C040
:0C0E2600E0C0E07450C0E0E4C0E074657F
:0B0E3200C0E074F7C0E07480C0E090E6
:0E0E3D0017B712082FAA82E58124F4F581BAB6
:0E0E4B000112C2AF90F8957401F090F891E496
:060E5900F0A3F00233B02B
:010E5F002270
:0A0E6000C2AF90F895E4F0023425CB
:0E0E6A00C0E0C0A8C2AF90F896E02401F0D01E
:0B0E7800E053E080E5E042A8D0E0225B
:0A0E8300C010E581F5102406F5818A
:0C0E8D00A810087600C0E0C0A8C2AF901A
:090E9900F896E01490F896F09030
:090EA200F896E0FB600302105B0E
:0A0EAB0090F890E0FB700302105B6A
:060EB500A81008087600F9
:0A0EBB0090E04EE0FCE4BC000104EE
:040EC500FCB4010078
:0E0EC900E433FC603190E05475F00012F571D6
:0E0ED700FCA312F571FDA312F571FE74082C38
:0E0EE500FCE43DFD8C828D838EF012F571FCD5
:0C0EF300A312F571FDA312F571FE80063C
:060EFF007C007D007E0076
:0E0F05008C078D038E02BC0009BD0006BE00E5
:040F13000302101BAA
:0E0F170074112FFCE43BFD8A068C828D838EC4
:0E0F2500F0C002C003C007122FC6D007D003D1
:0E0F3300D00274032FFCE43BFD8A068C828DF5
:0E0F4100838EF0C002C003C007122FC6D00777
:0E0F4F00D003D002741F2FFCE43BFD8A068CF9
:0B0F5D00828D838EF0A8100808081297
:0E0F6800F571F6C007C003C00290F894E0FADD
:0C0F7600A810080808C3EA96E433D00273
:0C0F8200D003D007600AA81008080890EF
:040F8E00F894E6F0FD
:0C0F9200E5102404F874032FF6E43B087B
:0E0F9E00F608A6028C828D838EF012F571FA91
:0A0FAC0075F00CA42400FAE434E010
:0C0FB600FB7F00C004C005C006E510244D
:0E0FC20004F8E6C0E008E6C0E008E6C0E08AF9
:0E0FD000828B838FF0122BD415811581158131
:0D0FDE00D006D005D0048C828D838EF012D9
:0E0FEB00F571FC90F88CE0FAA3E0FBA3E0FDAA
:0E0FF900741F2AFAE43BFB8A828B838DF01270
:0B100700F571FAC3EC9A5003020EBB17
:09101200A81008087601020EBBCB
:07101B0090F897E0FA601B5A
:0B10220090F897E0FA600E1210A89002
:0A102D00F897E01490F897F080EBBC
:06103700A8100808760174
:09103D00A8100808B601028008A1
:0810460090F898E0FABA010DE0
:0B104E00A81008760190F898E4F0125A
:0210590034263B
:0C105B00D0E053E080E5E042A8D0E0A81F
:0810670010088682851081D07B
:02106F0010224D
:0E107100C0E0C0A8C2AF90F891E0FAA3E0FB87
:0E107F00D0E053E080E5E042A8D0E08A828B0A
:02108D008322BC
:0E108F00C0E0C0A8C2AF90F890E0FAD0E053E5
:0B109D00E080E5E042A8D0E08A82225B
:0810A800C01085811005819044
:0910B000F896E0FA6003021299BF
:0D10B90090F891E02401F0A3E03400F090E5
:0E10C600F891E0FAA3E0FB4A703390E048E0B6
:0E10D400FAA3E0FBA3E0FC90E04BE0FDA3E0FC
:0E10E200FEA3E0FF90E048EDF0A3EEF0A3EFD8
:0D10F000F090E04BEAF0A3EBF0A3ECF090E1
:0610FD00F899E02401F067
:0E11030090E048E0FAA3E0FBA3E0FC8A828BB8
:0C111100838CF012F571FAE4BA000104BE
:04111D00FAB401001F
:0E112100E433FA604A90E048E0FAA3E0FBA352
:0E112F00E0FC74042AFAE43BFB74022AFAE4A2
:0E113D003BFB8A828B838CF012F571FAA312B1
:0E114B00F571FBA312F571FC74082AFAE43B5F
:0D115900FB8A828B838CF012F571FAA312D1
:0A116600F571FBA312F571FC800681
:061170007A007B007C0008
:0E1176008A058B068C07BA0009BB0006BC0078
:04118400030212A3AD
:0E11880074032DFAE43EFB8F048A828B838C65
:0E119600F012F571FAA312F571FBC005C00648
:0E11A400C00790F891E0FCA3E0FDC3EC9AEDCB
:0E11B2009BE433D007D006D00560030212A3E1
:0E11C00074032DFAE43EFB8F048A828B838C2D
:0E11CE00F0C005C006C007122FC6D007D0061D
:0E11DC00D00574112DFAE43EFB8F04C005C04F
:0E11EA0006C007740B2AFDE43BFE8C078D82C5
:0E11F8008E838FF012F571FDA312F571FEA328
:0E12060012F571FFED4E4FD007D006D00560F7
:0E121400158A828B838CF0C005C006C00712BD
:081222002FC6D007D006D0054D
:0E122A00741F2DFAE43EFB8F048A828B838CA6
:0C123800F0A8100812F571F6C005C00601
:0C124400C00790F894E0FDA81008C3ED6E
:0C12500096E433D007D006D0056008A853
:07125C00100890F894E6F081
:0E12630074032DFDE43EFE8A828B838CF01214
:0C127100F571FA75F00CA42400FAE434C6
:0C127D00E0FB7C00C005C006C0078A82B0
:0E1289008B838CF0122BD415811581158102F8
:02129700110341
:0A12990090F897E02401F0124224BF
:0A12A30090F897E0FA70031242245D
:0612AD00851081D0102223
:0E12B30090F896E0FA600790F8987401F02227
:0C12C10090F894E0FA75F00CA42400FAF8
:0C12CD00E434E0FB8A828B83E0700B901D
:0A12D900F894E01490F894F080DE21
:0C12E30090F894E0FA75F00CA42400FAD6
:0912EF00E434E0FB0ABA00010B33
:0C12F80090F894E0FC75F00CA42400FCBD
:0C130400E434E0FD8C828D83A3E0FCA3A8
:0E131000E0FDA3E0FE74022CFCE43DFD8C82A7
:0E131E008D838EF012F571FCA312F571FDA304
:0E132C0012F571FE8A828B83ECF0A3EDF0A324
:0C133A00EEF090F894E0FA75F00CA4249A
:0A13460000FAE434E0FB8A828B8396
:0E135000A3E0FAA3E0FBA3E0FC90F894E0FD1C
:0A135E0075F00CA42400FDE434E057
:0E136800FE74042DFDE43EFE7F00EAB5056133
:0E137600EBB5065DECB5075990F894E0FA75FA
:0A138400F00CA42400FAE434E0FBAE
:05138E000ABA00010B8A
:0C13930090F894E0FC75F00CA42400FC21
:0C139F00E434E0FD8C828D83A3E0FCA30D
:0E13AB00E0FDA3E0FE74022CFCE43DFD8C820C
:0E13B9008D838EF012F571FCA312F571FDA369
:0E13C70012F571FE8A828B83ECF0A3EDF0A389
:0213D500EEF038
:0C13D70090F894E0FA75F00CA42400FAE1
:0C13E300E434E0FB8A828B83A3E0FAA3D1
:0E13EF00E0FBA3E0FC74082AFAE43BFB8A82D0
:0E13FD008B838CF012F571FAA312F571FBA32D
:0E140B0012F571FC90F88CEAF0A3EBF0A3EC64
:02141900F022BF
:0A141B00C010858110AA82AB83ACDB
:0E142500F090F88CE0FDA3E0FEA3E0FF741150
:0E1433002DFDE43EFEC005C006C0078A828B78
:0D144100838CF0122D93158115811581907B
:0E144E00F88CE0FAA3E0FBA3E0FC74032AFA9A
:0D145C00E43BFB8A828B838CF0122FC6903C
:0C146900F891E0FAA3E0FBE51024FCF889
:0E147500E62AFA08E63BFB90F88CE0FCA3E0C8
:0E148300FDA3E0FE74032CFCE43DFD8C828D85
:0D149100838EF0EA12F089A3EB12F089902F
:0E149E00F891E0FCA3E0FDC3EA9CEB9D503406
:0E14AC0090F88CE0FAA3E0FBA3E0FC74032AA6
:0E14BA00FAE43BFB90E04BE0FDA3E0FEA3E074
:0E14C800FFC002C003C0048D828E838FF0121D
:0A14D6002D931581158115818032D8
:0E14E00090F88CE0FAA3E0FBA3E0FC74032A72
:0E14EE00FAE43BFB90E048E0FDA3E0FEA3E043
:0E14FC00FFC002C003C0048D828E838FF012E9
:08150A002D9315811581158157
:03151200D01022D4
:0A151500C0108581100581058105D5
:0E151F0081AA82AB83ACF012F571FDE4BD0031
:02152D000104B7
:04152F00FDB4010006
:0E153300E433FD603F74042AFAE43BFB7402CB
:0E1541002AFAE43BFB8A828B838CF012F57150
:0E154F00FAA312F571FBA312F571FC74082AC1
:0E155D00FAE43BFB8A828B838CF012F571FA64
:0C156B00A312F571FBA312F571FC8006C1
:061577007A007B007C00FD
:0C157D00A81008A60208A60308A604A8EF
:0C1589001008741126FDE40836FE0886E8
:0E159500078D828E838FF0122FC690F896E09D
:0C15A300FD7070A81008740326FDE40819
:0E15AF0036FE0886078D828E838FF0122FC6BF
:0C15BD00A81008741F26FDE40836FE0884
:0D15C90086078D828E838FF012F571FD90E4
:0D15D600F894E0FEC39D500590F894EDF0F0
:0C15E300A81008740326FEE40836FF0878
:0C15EF008602ED75F00CA42400FBE4342F
:0C15FB00E0FC7D00C006C007C0028B822F
:0E1607008C838DF0122BD415811581158180F6
:0116150023B1
:0C161600A81008741126FAE40836FB083E
:0E1622008604C002C003C00490E04E75F000C4
:09163000122BD4158115811581DE
:0C163900A81008741F26FAE40836FB080D
:0D16450086048A828B838CF012F571FA9076
:0E165200F88CE0FBA3E0FCA3E0FD741F2BFB73
:0E166000E43CFC8B828C838DF012F571FBC391
:08166E00EA9B40047A018002AE
:021676007A00F8
:081678008A82851081D0102246
:0E168000AA82AB83ACF090F899E0FD8A828BD1
:0B168E00838CF012F0890ABA00010BF7
:0E16990090F891E0FDA3E0FE8A828B838CF036
:0916A700ED12F089A3EE02F089B6
:0A16B000C010858110C082C083C005
:0C16BA00F0058105810581A810088682DA
:0E16C6000886830886F012F571FD90F899E011
:0616D400FEB505028031A5
:0C16DA00A81008740126FDE40836FE0884
:0E16E60086078D828E838FF012F571FDA312A0
:0E16F400F571FE90F891E0FFA3E0FAC3ED9FC0
:09170200EE9A50057D010217A8C2
:0C170B00A81008740126FEE40836FF0850
:0E17170086028E828F838AF012F571FAA31279
:0E172500F571FB90F891E0FCA3E0FEECC39A96
:0A173300FCEE9BFEE51024FBF8E538
:0C173D00102404F9E6F70809E6F7080993
:0C174900E6F7E5102404F8868208868389
:0E1755000886F012F571FDA312F571FFC3ECCA
:0E1763009DEE9F503E90F891E0FCA3E0FEEC5E
:0E177100C39AFAEE9BFBEDC39AFAEF9BFBE5E1
:0C177F00102404F886820886830886F097
:0A178B00EA12F089A3EB12F089A81E
:0B179500100886820886830886F01288
:0617A00016807D008002AE
:0217A6007D01C3
:0817A8008D82851081D0102212
:0717B00090F8987401F0228B
:0517B70012198F80FBF8
:0A17BC00C010858110C082C083C0F8
:0C17C600F0A81008742C26FDE40836FE84
:0C17D2000886078D828E838FF0E51024BE
:0D17DE00FCF8E612F089A308E612F089A8D5
:0C17EB001008742426FDE40836FE088671
:0C17F700077408C0E0E4C0E0E51024F92D
:0E180300F8E6C0E008E6C0E008E6C0E08D822E
:0E1811008E838FF012F4A2E58124FBF581A8EE
:0C181F001008742426FDE40836FE08863C
:0E182B000774072DFDE43EFE8D828E838FF044
:0C183900E412F089E51024F8F8B6040071
:091845004007E51024F8F87603D1
:0C184E00A81008741F26FDE40836FE08F0
:0C185A0086078D828E838FF0E51024F845
:0C186600F8E612F089A81008740326FDB3
:0E187200E40836FE0886078D828E838FF01202
:0C1880002BB3A81008741126FDE40836F4
:0E188C00FE0886078D828E838FF0122BB3A884
:0C189A001008740326FDE40836FE0886E2
:0E18A6000774082DFDE43EFE8D828E838FF0C8
:0B18B400A81008E612F089A308E61255
:0918BF00F089A308E612F089A8E3
:0C18C8001008741126FDE40836FE0886A6
:0C18D40007E51024F8F886027B0074047D
:0E18E000C39AFAE49BFB8D828E838FF0EA128E
:0818EE00F089A3EB12F089A8B8
:0C18F6001008741126FAE40836FB08867E
:0E1902000474082AFAE43BFB8A828B838CF083
:0B191000A81008E612F089A308E612F8
:09191B00F089A308E612F08985A9
:051924001081D010222B
:021929007A0042
:03192B00BA0400FB
:0C192E00501EEA75F00CA42400FBE43409
:0C193A00E0FC7D008B828C838DF0C002ED
:08194600122AE1D0020A80DD43
:0A194E0090E03075F000122AE190DD
:09195800E03C75F000122AE19058
:09196100E04E75F000122AE1903D
:09196A00E05A75F000122AE19028
:07197300E0487430F0A3749A
:0A197A00E0F0A37400F090E04B745D
:0A1984003CF0A374E0F0A37400F03F
:01198E002236
:08198F0090F88FE0FA700122CC
:0D199700120E6A90E05AE0FAE4BA00010472
:0C19A400FAC002120E83D002EA60012299
:0E19B000C0E0C0A8C2AF90E05AE0FAE4BA006E
:0219BE00010422
:0419C000FAB4010074
:0E19C400E433FA603190E06075F00012F571C6
:0E19D200FAA312F571FBA312F571FC74082A3A
:0E19E000FAE43BFB8A828B838CF012F571FADD
:0C19EE00A312F571FBA312F571FC80063A
:0619FA007A007B007C0076
:0E1A000074032AFDE43BFE8C078D828E838FDB
:0E1A0E00F0C002C003C004122FC6D004D003E3
:0C1A1C00D00290F890E01490F890F09048
:0E1A2800F88FE01490F88FF0D0E053E080E5E6
:0E1A3600E042A8D0E08A828B838CF0021B2A4B
:0A1A4400C010858110C082C0830528
:0E1A4E00810581058190002E1236CAAC82AD52
:0C1A5C0083AEF0A810080808A60408A635
:0C1A68000508A606A810080808B6000B28
:0B1A740008B6000708B60003021B17AD
:0C1A7F00A810080808742026FFE40836B0
:0C1A8B00FA088603A810088682088683EB
:0E1A9700C002C003C0071236CAAC82AD83AED7
:0E1AA500F0D007D003D0028F828A838BF0EC42
:0B1AB30012F089A3ED12F089A3EE12DF
:0C1ABE00F089BC0023BD0020BE001DA864
:0C1ACA001008080886820886830886F051
:0C1AD600123773A810080808E4F608F6A0
:041AE20008F6803151
:0E1AE6008F828A838BF012F571FFA312F571C7
:0C1AF400FAA312F571FBA81008E6C0E090
:0E1B000008E6C0E074A5C0E08F828A838BF0F7
:091B0E0012F437158115811581CF
:0C1B1700A810080808868208868308864B
:071B2300F0851081D01022B3
:0E1B2A00AA82AB83ACF074202AFDE43BFE8C53
:0D1B3800078D828E838FF012F571FDA312D0
:0E1B4500F571FEA312F571FF8D828E838FF075
:0E1B5300C002C003C004123773D004D003D008
:0A1B6100028A828B838CF002377336
:05F7650049444C450081
:03F86C0000000099
:01F86F000098
:01F870000097
:02F87100000095
:01F873000094
:01F874000093
:01F875000092
:01F876000091
:01F877000090
:01F87800008F
:01F87900008E
:0A1B6B00C010858110C082E58124BE
:0C1B750009F581A81008E67003021DC0ED
:0D1B81009000291236CAAB82AC83ADF0A8EB
:0C1B8E00100808A60308A60408A605A875
:0C1B9A00100808B6000B08B6000708B6DB
:051BA6000003021DC058
:0A1BAB00A81008A91019191986F0F6
:0E1BB500E7A4FEAFF074012EFAE43FFB8A8233
:0E1BC3008B83C006C0071236CAAA82AB83AC61
:0C1BD100F0D007D006A810080886820893
:0E1BDD0086830886F0EA12F089A3EB12F089E5
:0E1BEB00A3EC12F089BA0009BB0006BC00038F
:031BF900021DB119
:0A1BFC00A8100808E5102405F9748C
:0D1C06000326F7E4083609F70809E6F7A8F9
:0C1C130010080886820886830886F012FC
:0A1C1F00F571FDA312F571FAA3128E
:0C1C2900F571FBEE2DFEEF3AFF8B04E599
:0C1C3500102405F886820886830886F0DB
:0C1C4100EE12F089A3EF12F089A3EC1260
:0C1C4D00F089A8100808742426FCE408A4
:0D1C590036FE0886078C828E838FF0E41221
:0C1C6600F089A8100808740626FCE408A9
:0D1C720036FE0886078C828E838FF0ED12FF
:0A1C7F00F089A3EA12F089A3EB122A
:071C8900F089A8100808E52E
:0C1C9000102405F9740926F7E408360951
:0C1C9C00F70809E6F7A8100886047E008F
:0C1CA800E5102408F8EC24FFF6EE34FFF1
:0C1CB40008F6A81018181886077C00C05D
:0C1CC00002C003C005C007C004E51024EA
:0E1CCC0008F8868208868312F23CAC82AE8352
:0E1CDA0015811581D005D003D002EC2DFDEE52
:0C1CE8003AFAE5102405F886820886838D
:0E1CF4000886F0ED12F089A3EA12F089A3EB46
:0C1D020012F089A8100808742526FAE4E5
:0D1D0E000836FB0886048A828B838CF0A8BF
:071D1B001008E612F089A890
:0C1D2200100808742626FAE40836FB08B6
:0C1D2E0086048A828B838CF0A8101818A1
:0C1D3A0018E612F089A81008087427268B
:0E1D4600FAE40836FB0886048A828B838CF050
:0C1D540074FF12F089A8100808742826FB
:0E1D6000FAE40836FB0886048A828B838CF036
:0C1D6E0074FF12F089A8100808740C26FD
:0E1D7A00FAE40836FB0886048A828B838CF01C
:0C1D8800122AE1A8100808741826FAE4DA
:0D1D94000836FB0886048A828B838CF012CF
:0C1DA1002AE1A810080886820886830842
:041DAD0086F0801527
:0C1DB100A810080886820886830886F0C7
:031DBD0012377367
:061DC00090000075F00028
:061DC600851081D01022FF
:0A1DCC00C010858110C082C083C0E2
:0C1DD600F0E5812414F581120E6AE5107E
:0E1DE2002404FD7E007F408D828E838FF012E0
:0C1DF0001680C0E0C0A8C2AFA8100874A4
:0E1DFC002726FDE40836FE0886078D828E83BA
:0E1E0A008FF012F57104FA8D828E838FF01224
:0C1E1800F089A81008742826FAE40836A7
:0E1E2400FB0886048A828B838CF012F5710411
:0E1E3200FD8A828B838CF012F089D0E053E0A1
:0B1E400080E5E042A8D0E0A81008E513
:0C1E4B0010240AF9742626F7E408360972
:0A1E5700F70809E6F7A81008E510E7
:0E1E6100240DF9740326F7E4083609F7080982
:0A1E6F00E6F7A81008E5102407F9B3
:0D1E7900742526F7E4083609F70809E6F796
:0C1E8600A8100886820886830886F012E7
:091E92002A99E5827003021F5039
:0B1E9B00E51024F9F8E6084670030289
:021EA6001F50CB
:0C1EA800A81008740C26FDE40836FE08A3
:0C1EB4008607E51024F9F8E6C0E008E617
:0E1EC000C0E08D828E838FF012141B158115E9
:0C1ECE0081C0E0C0A8C2AFA81008868246
:0E1EDA000886830886F012295F120E83E582C7
:051EE800700312342616
:0C1EED00120E6AC0E0C0A8C2AFA8100826
:0E1EF900742726FDE40836FE0886078D828ECB
:0E1F0700838FF012F57104FA8D828E838FF0B5
:0C1F150012F089A81008742826FAE408CD
:0E1F210036FB0886048A828B838CF012F571E1
:0E1F2F0004FD8A828B838CF012F089D0E0537F
:0E1F3D00E080E5E042A8D0E0D0E053E080E58F
:051F4B00E042A8D0E017
:0C1F5000C0E0C0A8C2AFA810087424268E
:0E1F5C00FAE40836FB0886048A828B838CF038
:0C1F6A0012F571FDE5102407F8868208CE
:0E1F760086830886F012F571FEC3ED9E4003CF
:031F84000220EF49
:0C1F8700E510240AF8868208868308868C
:0C1F9300F012F571FDE5102413F8A6050E
:0A1F9F00087600A81008E5102410D1
:0E1FA900F9740626F7E4083609F70809E6F78A
:0C1FB700E5102410F88682088683088656
:0C1FC300F012F571FFA312F571FDA312DE
:0C1FCF00F571FEC002C003C004E5102440
:0C1FDB0013F8E6C0E008E6C0E0E51024C2
:0E1FE700FBF8E6C0E008E6C0E008E6C0E08FC8
:0E1FF500828D838EF012F399E58124FBF58135
:0D200300D004D003D0028A828B838CF012AF
:0E201000F57104FD8A828B838CF012F089E555
:0C201E00102410F886820886830886F0E3
:0B202A0012F571FAA312F571FBA3126E
:0C203500F571FCE510240AF8868208868C
:0E204100830886F012F571FD2AFAE43BFBE5F8
:0C204F00102410F886820886830886F0B2
:0C205B00EA12F089A3EB12F089A3EC124A
:0C206700F089E510240DF88682088683BD
:0E2073000886F012F571FDA312F571FEA3129E
:0E208100F571FFC3EA9DEB9EEC64808FF06367
:0C208F00F08095F04034A810088682080C
:0E209B0086830886F012F571FAA312F571FB28
:0C20A900A312F571FCE5102410F88682EB
:0D20B5000886830886F0EA12F089A3EB127A
:0720C200F089A3EC12F08984
:0C20C9007A01A81008742826FBE40836F1
:0E20D500FC0886058B828C838DF012F5710459
:0C20E300FE8B828C838DF012F08980024D
:0220EF007A0075
:0E20F100D0E053E080E5E042A8D0E0EA703C89
:0C20FF00E51024F9F8E608466032C00243
:0A210B00E51024F9FB7C007D40E59F
:0C211500102404FE7F007A40C003C004C8
:0E212100C0058E828F838AF01216B0AA821536
:0C212F008115811581EAD00270027AFF50
:06213B00BAFF03021E863C
:0C214100A8100886820886830886F0C07B
:0E214D000212295FD002C002120E83D0028A55
:07215B0082851081D01022E3
:0A216200C010858110C082C083C048
:0C216C00F0E581240CF581A81008742413
:0E21780026FDE40836FE0886078D828E838FD2
:0B218600F0E5102404F812F571F6A833
:0C2191001008742526FBE40836FC0886C4
:0C219D00028B828C838AF012F571FBE546
:0C21A900102404F8C3E69B400302238BC3
:0A21B500A81008E5102405F97426AF
:0C21BF0026F7E4083609F70809E6F7E502
:0C21CB00102405F886820886830886F040
:0C21D70012F571FAE510240BF8A60208BE
:0A21E3007600A81008E5102408F9A2
:0E21ED00740626F7E4083609F70809E6F7E558
:0C21FB00102408F886820886830886F00D
:0B22070012F571FCA312F571FAA3128E
:0C221200F571FBC005C006C007E51024F4
:0C221E000BF8E6C0E008E6C0E0E5102484
:0E222A00FBF8E6C0E008E6C0E008E6C0E08C85
:0E223800828A838BF012F399E58124FBF581F5
:0D224600D007D006D0058D828E838FF01258
:0E225300F57104FA8D828E838FF012F089E50A
:0C226100102408F886820886830886F0A6
:0B226D0012F571FAA312F571FBA31229
:0C227800F571FCE5102405F8868208864C
:0E228400830886F012F571FD2AFAE43BFBE5B3
:0C229200102408F886820886830886F075
:0C229E00EA12F089A3EB12F089A3EC1205
:0C22AA00F089A81008740326FDE4083633
:0E22B600FE0886078D828E838FF012F571FD73
:0E22C400A312F571FEA312F571FFC3EA9DEBA4
:0E22D2009EEC64808FF063F08095F04034A89D
:0B22E000100886820886830886F01232
:0A22EB00F571FAA312F571FBA312BE
:0C22F500F571FCE5102408F886820886CC
:0E230100830886F0EA12F089A3EB12F089A39C
:04230F00EC12F08953
:0C231300A81008742826FAE40836FB081D
:0E231F0086048A828B838CF012F571FDBDFF5F
:0A232D0052E51024FAF8E67055A8F6
:0C2337001008741826FAE40836FB08862B
:0D234300048A828B838CF012F571603CA837
:0A2350001008E5102408F97418269F
:0C235A00F7E4083609F70809E6F7E5107B
:0E2366002408F886820886830886F012151572
:07237400AE82BE00028010E2
:05237B007582018012D3
:0B2380000D8A828B838CF0ED12F08937
:07238B00E51024FAF8868238
:06239200851081D010222D
:0A239800C010858110C082C083C010
:0C23A200F0E581240FF581120E6AE510B1
:0E23AE002404FD7E007F408D828E838FF0120E
:0C23BC001680C0E0C0A8C2AFA8100874D2
:0E23C8002726FDE40836FE0886078D828E83E8
:0E23D6008FF012F57104FA8D828E838FF01253
:0C23E400F089A81008742826FAE40836D6
:0E23F000FB0886048A828B838CF012F5710440
:0E23FE00FD8A828B838CF012F089D0E053E0D0
:0B240C0080E5E042A8D0E0A81008E541
:0C241700102407F9742626F7E4083609A3
:0A242300F70809E6F7A81008E51015
:0E242D00240DF9740326F7E4083609F70809B0
:02243B00E6F7C2
:0C243D00A8100886820886830886F0122A
:092449002A68E5827003022507F0
:0B245200E51024F9F8E60846700302CC
:02245D00250751
:0C245F00A81008741826FDE40836FE08DA
:0C246B008607E51024F9F8E6C0E008E65A
:0E247700C0E08D828E838FF012141B1581152C
:0C24850081C0E0C0A8C2AFA81008868289
:0E2491000886830886F012295F120E83E5820A
:05249F00700312342659
:0C24A400120E6AC0E0C0A8C2AFA8100869
:0E24B000742726FDE40836FE0886078D828E0E
:0E24BE00838FF012F57104FA8D828E838FF0F9
:0C24CC0012F089A81008742826FAE40811
:0E24D80036FB0886048A828B838CF012F57125
:0E24E60004FD8A828B838CF012F089D0E053C3
:0E24F400E080E5E042A8D0E0D0E053E080E5D3
:05250200E042A8D0E05A
:0C250700C0E0C0A8C2AFA81008742426D1
:0E251300FAE40836FB0886048A828B838CF07B
:0825210012F571700302267F20
:0A252900C002C003C004A81008E5BA
:0C25330010240AF9740926F7E4083609A0
:0C253F00F70809E6F7E510240AF8868288
:0E254B000886830886F012F571FAA312F57166
:0C255900FBA312F571FCE5102407F886C6
:0E256500820886830886F012F571FD2AFAE4DA
:0C2573003BFBE510240AF88682088683F2
:0E257F000886F0EA12F089A3EB12F089A3ECB3
:0C258D0012F089E510240DF88682088603
:0E259900830886F012F571FDA312F571FEA302
:0E25A70012F571FFC3EA9DEB9EEC64808FF08D
:0E25B50063F08095F0D004D003D0024034A82B
:0B25C300100886820886830886F0124C
:0A25CE00F571FDA312F571FEA312D2
:0C25D800F571FFE510240AF886820886E1
:0E25E400830886F0ED12F089A3EE12F089A3B1
:0425F200EF12F0896B
:0E25F6008A828B838CF012F571FD1D8A828B18
:0C260400838CF0ED12F089E5102407F83B
:0E26100086820886830886F012F571FA7B0038
:0C261E00E510240AF886820886830886EE
:0C262A00F012F571FCA312F571FDA31273
:0E263600F571FEC002C003C004C005C006E579
:0C2644001024FBF886820886830886F0CC
:0C26500012F399E58124FBF581A8100825
:0E265C00742726FAE40836FB0886048A828B6F
:0E266A00838CF012F57104FD8A828B838CF054
:0726780012F0897A018002D3
:02267F007A00DF
:0E268100D0E053E080E5E042A8D0E0EA703CF3
:0C268F00E51024F9F8E608466032C002AD
:0A269B00E51024F9FB7C007D40E50A
:0C26A500102404FE7F007A40C003C00433
:0E26B100C0058E828F838AF01216B0AA8215A1
:0C26BF008115811581EAD00270027AFFBB
:0626CB00BAFF0302243DEA
:0C26D100A8100886820886830886F0C0E6
:0E26DD000212295FD002C002120E83D0028AC0
:0726EB0082851081D010224E
:0A26F200C010858110C082C083C0B3
:0C26FC00F0E5812408F581A81008742482
:0E27080026FDE40836FE0886078D828E838F3C
:0B271600F0E5102404F812F571F6E560
:0A272100102404F8E670030228F803
:0A272B00C005C006C007A81008E5AD
:0C273500102405F9740926F7E4083609A1
:0C274100F70809E6F7E5102405F8868289
:0E274D000886830886F012F571FDA312F5715F
:0C275B00FEA312F571FFA81008742626DA
:0E276700FAE40836FB0886048A828B838CF025
:0A277500E5102408F812F571F6E5EE
:0B277F00102408F8E62DFDE43EFEE506
:0C278A00102405F886820886830886F07B
:0C279600ED12F089A3EE12F089A3EF12FF
:0C27A200F089A81008740326FAE4083639
:0E27AE00FB0886048A828B838CF012F571FA88
:0E27BC00A312F571FBA312F571FCC3ED9AEEAA
:0E27CA009BEF64808CF063F08095F0D007D018
:0C27D80006D0054034A810088682088650
:0E27E400830886F012F571FAA312F571FBA3BB
:0C27F20012F571FCE5102405F886820841
:0E27FE0086830886F0EA12F089A3EB12F089B8
:05280C00A3EC12F089AD
:0C281100E5102404F8E614FA8D828E8392
:0C281D008FF012F089E5102408F8860204
:0C2829007B00E5102405F88682088683F9
:0E2835000886F012F571FCA312F571FDA312D6
:0E284300F571FEC002C003C004C005C006E56A
:0C2851001024FBF886820886830886F0BD
:0C285D0012F399E58124FBF581A8100816
:0E286900742726FAE40836FB0886048A828B60
:0C287700838CF012F571FDBDFF68E510C8
:0E28830024F8F886020886030886048A828BF1
:0C289100838CF012F571705BA8100874C5
:0E289D000C26FDE40836FE0886078D828E8329
:0C28AB008FF012F5716042A81008740C48
:0E28B70026FDE40836FE0886078D828E838F8C
:0E28C500F0C002C003C004121515AE82D0048C
:0928D300D003D002BE00028018FF
:0D28DC008A828B838CF0740112F089800BCE
:0B28E9000D8A828B838CF0ED12F089C9
:0428F4007A018002E3
:0228F8007A0064
:0828FA008A82851081D01022B2
:0E290200AA82AB83ACF0C0E0C0A8C2AF7424C0
:0E2910002AFAE43BFB8A828B838CF012F5716D
:0E291E00FAD0E053E080E5E042A8D0E08A82E3
:01292C002288
:0E292D00AA82AB83ACF012F571FDA312F57116
:0E293B00FEA312F571FF8D828E838FF0C00215
:0E294900C003C004123773D004D003D0028A3A
:08295700828B838CF0023773C0
:0E295F00AA82AB83ACF0C0E0C0A8C2AF74285F
:0E296D002AFDE43BFE8C078D828E838FF012D4
:0E297B00F571F8188D828E838FF0E812F089C6
:0E298900C3747F88F063F08095F050538D8208
:0E2997008E838FF074FF12F08974182AFDE40D
:0E29A5003BFE8C078D828E838FF012F57160E1
:0E29B3003474182AFDE43BFE8C078D828E835F
:0E29C1008FF0C002C003C004121515AD82D005
:0A29CF0004D003D002BD0002800F07
:0E29D900C002C003C0041217B0D004D003D057
:0129E70002ED
:0E29E800D0E053E080E5E042A8D0E0C0E0C0BF
:0E29F600A8C2AF74272AFDE43BFE8C078D8239
:0E2A04008E838FF012F571F8188D828E838FFD
:0E2A1200F0E812F089C3747F88F063F08095BD
:0E2A2000F050398D828E838FF074FF12F08992
:0E2A2E00740C2AFDE43BFE8C078D828E838F94
:0E2A3C00F012F571601A740C2AFAE43BFB8A62
:0E2A4A00828B838CF0121515AA82BA000280CE
:012A5800037A
:032A59001217B0A1
:0C2A5C00D0E053E080E5E042A8D0E0228A
:0E2A6800AA82AB83ACF0C0E0C0A8C2AF742459
:0E2A76002AFAE43BFB8A828B838CF012F57106
:062A8400FAE4BA000104AF
:0E2A8A00FAD0E053E080E5E042A8D0E08A8276
:012A9800221B
:0E2A9900AA82AB83ACF0C0E0C0A8C2AF742428
:0E2AA7002AFDE43BFE8C078D828E838FF01299
:0E2AB500F571FD74252AFAE43BFB8A828B83BF
:0E2AC3008CF012F571FAEDB502047401800179
:012AD100E420
:0E2AD200FDD0E053E080E5E042A8D0E08D8228
:012AE00022D3
:0A2AE100C010858110C082C083C0C0
:0C2AEB00F0058105810581A81008740128
:0C2AF70026FDE40836FE088607A810083B
:0C2B0300E5102404F9740426F7E40836F9
:0D2B0F0009F70809E6F78D828E838FF0E547
:0C2B1C00102404F8E612F089A308E61269
:092B2800F089A308E612F089E52A
:0C2B3100102404F886820886830886F0D1
:0C2B3D0074FF12F089A374FF12F089E508
:0C2B4900102404F8740226FBE40836FC9B
:0C2B55000886058B828C838DF0E510242F
:0E2B610004F8E612F089A308E612F089A30832
:0C2B6F00E612F089E5102404F874052635
:0E2B7B00FBE40836FC0886058B828C838DF007
:0C2B8900E5102404F8E612F089A308E629
:0A2B950012F089A308E612F089A8E7
:0C2B9F00100886820886830886F0E41285
:062BAB00F089851081D0C5
:022BB1001022F0
:0E2BB300AA82AB83ACF0740B2AFAE43BFB8AD7
:0E2BC100828B838CF0E412F089A3E412F08979
:052BCF00A3E402F089FF
:0A2BD400C010858110C082C083C0CC
:0B2BDE00F0E581240CF581A81008E54B
:0C2BE900102407F9740126F7E4083609EF
:0C2BF500F70809E6F7E5102407F88682CF
:0E2C01000886830886F012F571FAA312F571A9
:0C2C0F00FBA312F571FCE5102404F8A6EC
:0C2C1B000208A60308A604E51024FBF83C
:0C2C27008602088603088604E510240AD3
:0D2C3300F874022AF6E43B08F608A604E552
:0C2C4000102404F88605088606088607A4
:0E2C4C0074022DFDE43EFE8D828E838FF01209
:0A2C5A00F571FDA312F571FEA3123F
:0C2C6400F571FFE510240AF8868208864E
:0E2C7000830886F0ED12F089A3EE12F089A31E
:0C2C7E00EF12F089E510240AF874052A12
:0C2C8A00F6E43B08F608A604E510240759
:0E2C9600F886820886830886F012F571FDA389
:0A2CA40012F571FEA312F571FFE5B1
:0C2CAE0010240AF886820886830886F04D
:0C2CBA00ED12F089A3EE12F089A3EF12D6
:0C2CC600F089E5102404F8860508860655
:0E2CD20008860774022DFDE43EFE8D828E837F
:0D2CE0008FF012F571FDA312F571FEA31225
:0E2CED00F571FF74052DFDE43EFE8D828E8391
:0E2CFB008FF0EA12F089A3EB12F089A3EC121D
:0C2D0900F089E5102404F8860508860611
:0E2D150008860774022DFDE43EFE8D828E833B
:0E2D23008FF0EA12F089A3EB12F089A3EC12F4
:0C2D3100F089E5102407F88682088683EC
:0E2D3D000886F0EA12F089A3EB12F089A3ECED
:0E2D4B0012F089740B2AFAE43BFB8A828B8318
:0C2D59008CF0A81008E612F089A308E630
:0A2D650012F089A308E612F089A815
:0B2D6F00100886820886830886F01298
:0C2D7A00F57104FAA81008868208868310
:0B2D86000886F0EA12F089851081D069
:022D910010220E
:0A2D9300C010858110C082C083C00B
:0C2D9D00F0E581240BF581E51024FBF823
:0E2DA90086050886060886078D828E838FF0C9
:0A2DB70012F571FAA312F571FBE5A5
:0A2DC100102407F8A60208A603E597
:0C2DCB00102407F8B6FF4908B6FF45C009
:0C2DD70005C006C007A81008740426FD03
:0E2DE300E40836FE08860774052DFDE43EFE6A
:0E2DF1008D828E838FF012F571FDA312F571A5
:0C2DFF00FEA312F571FFE5102404F8A6F5
:0E2E0B000508A60608A607D007D006D00502C7
:022E19002EACDD
:0A2E1B00A81008E5102404F974045F
:0B2E250026F7E4083609F70809E6F775
:0C2E3000E5102404F886020886030886DA
:0E2E3C000474022AFAE43BFB8A828B838CF03A
:0B2E4A0012F571FAA312F571FBA31240
:0E2E5500F571FC8A828B838CF012F571FAA362
:0C2E630012F571FBE5102407F8C3E69A95
:0C2E6F0008E69B4038E5102404F88602B9
:0E2E7B0008860308860474022AFAE43BFB8AE8
:0E2E8900828B838CF012F571FAA312F571FBA7
:0C2E9700A312F571FCE5102404F8A6025B
:092EA30008A60308A604022E3063
:0C2EAC00E5102409F874022DF6E43E083D
:0C2EB800F608A607E5102404F8860208BE
:0E2EC400860308860474022AFAE43BFB8A8225
:0E2ED2008B838CF012F571FAA312F571FBA33D
:0C2EE00012F571FCE5102409F886820848
:0E2EEC0086830886F0EA12F089A3EB12F089C3
:0C2EFA00A3EC12F089E5102409F8868290
:0E2F06000886830886F012F571FAA312F571A1
:0E2F1400FBA312F571FC74052AFAE43BFB8A5C
:0E2F2200828B838CF0ED12F089A3EE12F08901
:0E2F3000A3EF12F08974052DFAE43EFB8F0426
:0C2F3E008A828B838CF0E5102404F8E6F6
:0D2F4A0012F089A308E612F089A308E61230
:0C2F5700F089E5102404F88602088603C7
:0E2F630008860474022AFAE43BFB8A828B8300
:0E2F71008CF0ED12F089A3EE12F089A3EF129E
:0E2F7F00F089740B2DFDE43EFE8D828E838F53
:0C2F8D00F0A81008E612F089A308E61274
:092F9900F089A308E612F089A8F2
:0B2FA200100886820886830886F01263
:0C2FAD00F57104FAA810088682088683DB
:0B2FB9000886F0EA12F089851081D034
:022FC4001022D9
:0A2FC600C010858110C082C083C0D6
:0C2FD000F0E581240CF581A810087402C3
:0E2FDC0026FDE40836FE0886078D828E838F60
:0C2FEA00F012F571FAA312F571FBA312AE
:0C2FF600F571FCE510240AF874052AF6B9
:0B300200E43B08F608A604A81008E54F
:0C300D00102407F9740526F7E4083609C2
:0C301900F70809E6F7E5102407F88682A6
:0E3025000886830886F012F571FAA312F57181
:0C303300FBA312F571FCE510240AF886DE
:0E303F00820886830886F0EA12F089A3EB125D
:08304D00F089A3EC12F089E503
:0C305500102407F886820886830886F0A5
:0B30610012F571FAA312F571FBA31227
:0E306C00F571FC74022AFAE43BFB8D828E8320
:0D307A008FF012F571FDA312F571FEA31287
:0E308700F571FF8A828B838CF0ED12F089A325
:0A309500EE12F089A3EF12F089A8F3
:0C309F001008740B26FAE40836FB0886C3
:0D30AB00048A828B838CF012F571FDA31254
:0930B800F571FEA312F571FFE5AC
:0C30C100102404F8A60508A60608A607BF
:0A30CD00E5102404F8E510240AF9C8
:0E30D700740126F7E4083609F70809E6F7E564
:0C30E50010240AF886820886830886F012
:0B30F10012F571FDA312F571FEA31291
:0C30FC00F571FFA81008E6B5050C08E609
:0A310800B5060708E6B507028002CD
:02311200803605
:0C311400E5102407F886820886830886F0
:0C312000F012F571FDA312F571FEA31270
:0C312C00F571FFE510240AF88682088681
:0E313800830886F0ED12F089A3EE12F089A351
:04314600EF12F0890B
:0D314A008A828B838CF0E412F089A3E412DA
:08315700F089A3E412F089E500
:0C315F00102404F886820886830886F09D
:0C316B0012F571FA1AE5102404F88682AF
:0C3177000886830886F0EA12F0898510B3
:0431830081D01022C5
:0A318700C010858110C082C083C013
:0B319100F0058105810581A81008E50C
:0C319C00102404F9E6F70809E6F708091A
:0C31A800E6F7A81008740126F6E40836CB
:0C31B400F6E51024FCF886050886067F6E
:0C31C000007A008D03A8100886820886A3
:0E31CC00830886F0EB12F089A31818A682087B
:0D31DA00A6838E058F068A077A008D03A854
:0C31E700100886820886830886F0EB1230
:0C31F300F089A31818A68208A683A81073
:0E31FF000886820886830886F074AA12F0897A
:0C320D00A31818A68208A683A810088643
:0E321900820886830886F0748012F089A3185C
:0C32270018A68208A683E51024F9F8869A
:0C323300050886060886077A008D03A8AF
:0C323F00100886820886830886F0EB12D7
:0E324B00F089A31818A68208A6838E058F06A8
:0C3259008A077A008D03A81008868208FE
:0E32650086830886F0EB12F089A31818A68263
:0C32730008A6838E058F068A077A00A843
:0C327F00100886820886830886F0ED1295
:0C328B00F089A31818A68208A683A810DA
:0E3297000886820886830886F0740212F08989
:0C32A500A31818A68208A683A8100886AB
:0E32B100820886830886F0740312F089A31841
:0C32BF0018A68208A683A81008868208C2
:0E32CB0086830886F0740412F089A31818A6F2
:0C32D9008208A683A8100886820886835D
:0E32E5000886F0740512F089A31818A6820856
:0C32F300A683A81008868208868308863F
:0E32FF00F0740612F089A31818A68208A683A0
:0C330D00A8100886820886830886F074E9
:0D3319000712F089A31818A68208A683A841
:0C332600100886820886830886F0E412F6
:0C333200F089A31818A68208A683A81032
:0E333E000886820886830886F0740112F089E2
:0C334C00A31818A68208A683A810088603
:0E335800820886830886F0E412F089A3181814
:0C336600A68208A683A8100886820886AC
:0C337200830886F074BB12F089A81008D4
:0C337E00E5102404F9E6C397FA08E609FC
:0C338A0097FBE5102404F8868208868377
:0C3396000886F0EA12F089E5102404F823
:0C33A20086820886830886F0851081D0A2
:0233AE001022EB
:0E33B00012365890F88CE0FAA3E0FBA3E0FC84
:0C33BE008A828B838CF012F571F50DA350
:0633CA0012F571F50E750D
:0633D0000F21850D82852E
:0533D6000E83E0F50884
:0733DB00050DE4B50D02052C
:0133E2000EDC
:0533E300050FA80F8595
:0933E8000D82850E83E0FAF61552
:0633F10008E50870E58507
:0A33F7000F81D010D0D0D001D0001B
:0E340100D007D006D005D004D003D002D0F002
:0E340F00D083D082D0E020E705C2AF02341F88
:02341D00D2AF2C
:06341F00D0E075820122DD
:013425002284
:0E342600C0E0C0A8C2AFC082C083C0F0C00228
:0E343400C003C004C005C006C007C000C00130
:0C344200C0D075D000C01090F88CE0FAEB
:0D344E00A3E0FBA3E0FC8A828B838CF012CC
:06345B00F571F50DA3124E
:05346100F571F50E7588
:093466000F22E58124DFF5088541
:06346F000D82850E83F0C2
:08347500E508601A050DE4B53D
:04347D000D02050E29
:07348100850D82850E83A872
:083488000F8602EAF0050F15A2
:033490000880E2CF
:0E3493001212B390F88CE0FAA3E0FBA3E0FC69
:0C34A1008A828B838CF012F571F50DA36C
:0634AD0012F571F50E7529
:0634B3000F21850D82854A
:0534B9000E83E0F508A0
:0734BE00050DE4B50D020548
:0134C5000EF8
:0534C600050FA80F85B1
:0934CB000D82850E83E0FAF6156E
:0634D40008E50870E58523
:0A34DA000F81D010D0D0D001D00037
:0E34E400D007D006D005D004D003D002D0F01F
:0E34F200D083D082D0E020E705C2AF023502C1
:02350000D2AF48
:02350200D0E017
:0E350400C2AFC0E0C0A8C2AFC082C083C0F09A
:0E351200C002C003C004C005C006C007C00050
:0C352000C001C0D075D000C01090F88C25
:0E352C00E0FAA3E0FBA3E0FC8A828B838CF024
:07353A0012F571F50DA3125B
:05354100F571F50E75A7
:093546000F22E58124DFF5088560
:06354F000D82850E83F0E1
:08355500E508601A050DE4B55C
:04355D000D02050E48
:07356100850D82850E83A891
:083568000F8602EAF0050F15C1
:033570000880E2EE
:07357300859509750A00753A
:0A357A000B00750C00AA967B007C84
:0C358400008C058B048A03E4FA2509F58D
:0535900009EB350AF50E
:053595000AEC350BF506
:05359A000BED350CF5FE
:0C359F000CAA977B007C008B058A04E4DA
:0835AB00FBFA2509F509EB35D7
:0535B3000AF50AEC35E9
:0535B8000BF50BED35E1
:0635BD000CF50C74202542
:0535C30009F509E435E3
:0535C8000AF50AE435DC
:0535CD000BF50BE435D5
:0435D2000CF50C8563
:0635D6000B97850A9685A3
:0635DC0009951210A8126F
:0E35E20012B353C07F90F88CE0FAA3E0FBA375
:0C35F000E0FC8A828B838CF012F571F5F0
:0635FC000DA312F571F5AC
:053602000E750F21858B
:073607000D82850E83E0F542
:01360E0008B3
:07360F00050DE4B50D0205F5
:013616000EA5
:05361700050FA80F855E
:09361C000D82850E83E0FAF6151B
:0636250008E50870E585D0
:0A362B000F81D010D0D0D001D000E4
:0E363500D007D006D005D004D003D002D0F0CC
:0E364300D083D082D0E020E705C2AF0236531C
:02365100D2AFF6
:05365300D0E0D2AF320F
:0A36580075C6B8859509750A00755E
:0A3662000B00750C00AA967B007C9B
:0C366C00008C058B048A03E4FA2509F5A4
:0536780009EB350AF525
:05367D000AEC350BF51D
:053682000BED350CF515
:0C3687000CAA977B007C008B058A04E4F1
:08369300FBFA2509F509EB35EE
:05369B000AF50AEC3500
:0536A0000BF50BED35F8
:0636A5000CF50C74202559
:0536AB0009F509E435FA
:0536B0000AF50AE435F3
:0536B5000BF50BE435EC
:0436BA000CF50C857A
:0636BE000B97850A9685BA
:0636C400099543A8202235
:0A36CA00C010858110C082C0830586
:0E36D4008105817C007D007E00C004C005C021
:0E36E20006120E6AD006D005D00490F89AA801
:0B36F00010080808E0F6A3E008F6A8A8
:0A36FB0010080808A91009E726FFCF
:0E37050009E70836FAC3EF947CEA94155045A4
:0A371300A810080808A91009E7260D
:0C371D00FA09E70836FBA810080808C3EA
:0C372900E69A08E69B5028A81008080843
:0A373500E6246BFA08E634E0FB8A94
:0B373F00048B057E00A810080808A9F4
:0C374A00100990F89AE726F009E708360D
:02375600A3F0DE
:0E375800C004C005C006120E83D006D005D0F6
:0B376600048C828D838EF0851081D0D2
:02377100102224
:013773002233
:0837740090F89AE4F0A3F022A2
:02F87A0000008C
:04377C0043FDC02227
:03378000D28622CC
:03378300C28622D9
:03378600D28722C5
:03378900C28722D2
:0D378C0012377C43C68053C6BE75820122F1
:0A379900C010858110AA82AB83AC3A
:0E37A300F0C2AF8A828B83E8C0E0EAC0E0E5A6
:0C37B1001024F9F8E6FA08E6F58408E6B2
:0E37BD004480F58508E61813E6130303543024
:0437CB004401F5C7F9
:0E37CF00759201E493A3759200F0A3DAF375EE
:0E37DD00C711D0E0FAD0E0F8D2AF8A828B8319
:0A37EB008CF012F571F584D0102265
:0837F500AA82AB837C007D0079
:0E37FD00C3EC9AED9B5008000CBC00F40D804C
:01380B00F1CB
:01380C002299
:08380D00AA82AB837C007D0060
:0E381500C3EC9AED9B501D9003E8C002C00367
:0E382300C004C0051237F5D005D004D003D084
:08383100020CBC00DF0D80DC7D
:01383900226C
:0E383A00AA82AB83ACF012F571FDBD010280D5
:013848002B54
:05384900BD0202800336
:03384E00BD032394
:0C385100740DC0E0E4C0E0749CC0E074A2
:0C385D00F8C0E0E4C0E08A828B838CF0AD
:0B38690012F399E58124FBF58180211A
:0C387400740DC0E0E4C0E074A9C0E07472
:0C388000F8C0E0E4C0E08A828B838CF08A
:09388C0012F399E58124FBF5819A
:043895007582012215
:0E389900AA82AB83ACF012F571FDBD01028076
:0138A70034EC
:0538A800BD02028003D7
:0338AD00BD032C2C
:0E38B000740DC0E0E4C0E0C002C003C004908C
:0E38BE00F89C75F00012F399E58124FBF5816A
:0E38CC007406C0E090F89D75F0001298E015AB
:0238DA00812249
:0E38DC00740DC0E0E4C0E0C002C003C0049060
:0E38EA00F8A975F00012F399E58124FBF58131
:0E38F8007401C0E090F8AA75F0001298E01577
:07390600817582000296E4C6
:0DF87C00000000000000000000000000007F
:0DF889000000000000000000000000000072
:0A390D00AA82AB83ACF0FD023DB3CB
:0A391700AA82AB83ACF0FD023E2053
:05392100AA82023EC96C
:08392600AA82AB837C007D0046
:0E392E008A828B83E493FE60278E82C002C0E3
:0E393C0003C004C005123921AE82D005D004AC
:0A394A00D003D002BEFF038C8222DE
:053954000ABA00010B9E
:053959000D8D0480D07B
:03395E008C822236
:0A396100C010858110058105810565
:0A396B00817A267BF67C008A828BAD
:0C397500838CF0E412F0891ABAFF011BE9
:0A398100A810181818B610028003F1
:03398B00023A20DD
:0C398E00E51024FBF8740F56FD7E00EDE0
:0A399A00246AF582EE34F7F583E4A9
:0E39A40093FD8A828B838CF012F0891ABAFF91
:0239B200011BF7
:0C39B400E51024FB04F8E618C4C6C45457
:0D39C0000F66C6540FC666C630E30244F021
:0C39CD0008F6E51024FBF8740F56FD7E90
:0A39D90000ED246AF582EE34F7F5E4
:0E39E30083E493FD8A828B838CF012F0891AA4
:0439F100BAFF011BFD
:0C39F500E51024FB04F8E618C4C6C45416
:0D3A01000F66C6540FC666C630E30244F0DF
:0C3A0E0008F6E51024FBF8E6084660030B
:033A1A0002398EE0
:033A1D00023AFC6E
:0C3A20007F00E51024FB04F8E630E70FFF
:0C3A2C007F01E51024FBF8C3E496F608C7
:033A3800E496F61B
:0B3A3B00A81008A60208A60308A604B5
:0C3A4600C007740AC0E0E4C0E0E51024F2
:0E3A5200FBF8868208868312F58DAD82AE8366
:0C3A600015811581D00774302DFDA810D1
:0E3A6C000886820886830886F0ED12F089A88D
:0C3A7A001008E624FFF608E634FFF6C052
:0C3A860007740AC0E0E4C0E0E51024FB77
:0E3A9200F8868208868312F690AD82AE831508
:0C3AA000811581D007E51024FBF8A60575
:0C3AAC0008A606E51024FBF8E6084670AA
:0C3AB8008DEF6021A8100886820886832C
:0C3AC4000886F0742D12F089A81008E6A6
:0D3AD00024FFFA08E634FFFB088604801F7F
:0C3ADD00A8100886820886830886F07412
:0C3AE9002012F089A81008E624FFFA085B
:073AF500E634FFFB08860424
:053AFC000ABA00010BF5
:0D3B01008A828B838CF0C002C003C00412C6
:0E3B0E00F559AD82AE83D004D003D002C002C0
:0D3B1C00C003C004C0058A828B838CF012A8
:0E3B29003B3F1581D004D003D0028A828B83EB
:083B37008CF0851081D01022F2
:0A3B3F00C010858110C082C083C051
:053B4900F07D007E008C
:0C3B4E00A810181818C3EE96503AC005D5
:0C3B5A00A81008EE26FFE40836FD0886DF
:0E3B6600028F828D838AF012F571FFF582C006
:0E3B740005C006123921AA82D006D005E4BA97
:033B8200FF01043C
:083B8500D00560048D82800769
:053B8D000E8E0580BC56
:023B92008D8222
:063B9400851081D0102213
:0A3B9A00C01085811005810581052A
:0E3BA40081AA82AB83ACF074012AFDE43BFEE3
:0E3BB2008C078A828B838CF012F571FABA01AF
:043BC00003023C615F
:063BC400BA0203023D47B6
:063BCA00BA0303023CC433
:053BD000BA04028009A7
:063BD500BA0803023DA73F
:033BDB00023DADFB
:0E3BDE0074082DFDE43EFE8D828E838FF01262
:0E3BEC00F571FAA3AD82AE837B00C005C00662
:0E3BFA00C007C002C0037410C0E07582021242
:0E3C08003961158115811581D007D006D005D0
:0E3C16008D828E838FF012F571FAA3AD82AE0F
:0E3C2400837B00C005C006C007C002C0037449
:0E3C320010C0E07582021239611581158115EE
:0E3C400081D007D006D00590F77AC005C006E7
:0E3C4E00C007123926D007D006D005ED24F6A7
:053C5C00FDEE34FFFE47
:0C3C610074082DFDE43EFEA81008A60526
:083C6D0008A60608A6077A006C
:033C7500BA08008A
:053C78004003023DAD18
:0C3C7D00A81008E624FFF608E634FFF665
:0C3C8900A8100886820886830886F012C6
:0E3C9500F571FB7C00C002C003C0047410C0B7
:0E3CA300E0758202123961158115811581D0FC
:043CB10002BA07004C
:0C3CB500500A90F77CC002123926D002A1
:033CC1000A80B1C5
:0E3CC40074022DFDE43EFE8D828E838FF01281
:0E3CD200F571FAA3AD82AE837B00C005C0067B
:0E3CE000C007C002C0037410C0E0758202125B
:0E3CEE003961158115811581D007D006D005EA
:0E3CFC008D828E838FF012F571FAA3AD82AE29
:0E3D0A00837B00C005C006C007C002C0037462
:0E3D180010C0E0758202123961158115811507
:0E3D260081D007D006D00590F77AC005C00600
:0E3D3400C007123926D007D006D005ED24FCBA
:053D4200FDEE34FFFE60
:0D3D470074022DFDE43EFE7A028E048F030F
:053D54001DBDFF011C74
:0E3D59008D828C838BF012F571FE7F00C0020C
:0E3D6700C003C004C005C006C0077410C0E051
:0E3D7500758202123961158115811581D00504
:0E3D8300D004D003D002EA14701690F77CC072
:0E3D910002C003C004C005123926D005D004BC
:043D9F00D003D0027B
:043DA300DAAF80060D
:063DA70090F77E123926A0
:063DAD00851081D01022F8
:0EF76A0030313233343536373839414243447A
:02F77800454604
:02F77A0020006D
:02F77C003A0051
:0AF77E0042726F61646361737400EE
:0E3DB300AA82AB83ACF0FDBA0062BBC25FBC5B
:0E3DC100015CBD005990F8B7E0FAA3E0FBA347
:0E3DCF00E0FCEA4B4C70267401C0E0758204E3
:0E3DDD00121B6BAA82AB83ACF0158190F8B775
:0E3DEB00EAF0A3EBF0A3ECF090F8BAE4F0904D
:033DF900F8BBF024
:0E3DFC0043F10243F4C043FE2043902075FAC9
:0E3E0A00D875FC0B75FB0275F8C2D2AB439A5B
:073E18000890F8B67401F0F8
:013E1F002280
:0A3E2000C010858110C082C0830528
:0B3E2A0081E5102403FC7D007E409029
:0C3E3500F8B7E0FFA3E0FAA3E0FBA81040
:0E3E410008E6C0E008E6C0E0C004C005C00608
:0E3E4F008F828A838BF0122398AA82E5812449
:0C3E5D00FBF581BA010FA81008080886C8
:093E6900027B008A828B83800336
:033E720090FFFFBF
:063E7500851081D010222F
:083E7B00C0108581100581AA29
:0C3E8300100A7B007C4090F8B7E0FDA323
:0E3E8F00E0FEA3E0FFE4C0E0C0E0C002C0031C
:0E3E9D00C0048D828E838FF0122398AA82E5D6
:0C3EAB008124FBF581BA010DA8100886E7
:093EB700027B008A828B838003E8
:033EC00090FFFF71
:063EC300851081D01022E1
:0D3EC900AA827B0090F8B6E0FCBC010990D5
:083ED600F8B6E4F08AF9805807
:093EDE0090F8BBE004FCBC80007C
:063EE7004004EC2480FC05
:0D3EED0090F8BAE0FDECB505047BFF803CC9
:0A3EFA00EC2427F582E434F6F5838A
:0E3F0400EAF0C2AF90F8BBECF090F8B6E0FC2B
:0E3F1200BC011F90F8BA74012DF090F8BAE0CF
:043F2000FCBC800065
:093F24004007EC248090F8BAF08B
:073F2D0090F8B6E4F08AF9F8
:023F3400D2AF0A
:033F36008B822259
:0E3F3900C0E0C0F0C082C083C002C003C0045C
:0C3F4700C005C006C007C000C001C020BB
:0A3F5300C0D075D000C010858110A9
:0A3F5D000581C28FA81008A6F9AA7A
:0C3F6700100A7B007C4090F8B7E0FDA33E
:0E3F7300E0FEA3E0FFE4C0E0C002C003C00413
:0E3F81008D828E838FF0122162AA82E5812448
:093F8F00FCF581BA01031234268D
:083F9800851081D010D0D0D0BB
:0C3FA00020D001D000D007D006D005D002
:0E3FAC0004D003D002D083D082D0F0D0E03217
:0E3FBA00C0E0C082C083C002C003C0D075D07A
:0E3FC8000090F8BAE0FA90F8BBE0FBEAB5030F
:033FD6000280273F
:0C3FD90090F8BA74012AF0EA2427F5825F
:0C3FE500E434F6F583E0F5F990F8BAE05A
:043FF100FABA800098
:0B3FF500400FEA248090F8BAF080062C
:0640000090F8B67401F017
:0D400600D0D0D003D002D083D082D0E032E1
:01F896000170
:03F897000000006E
:01F89A00006D
:01F89B00006C
:0E40130090F8BCE0FABAFF3E90F71FE4F0A36D
:03402100F07A082A
:0C402400EA14FB75F00FA4FC24A7F58241
:0C403000E434F6F583E4F0A3F0A3F0EC18
:0A403C0024A7FCE434F6FD74062C02
:0E404600F582E43DF583E4F08B02EA70D19040
:05405400F8BC7401F04E
:014059002244
:0A405A00C010858110C082C083C031
:0E406400F00581058190F8BCE0FDBDFF031260
:024072004013F9
:044074007D007E004D
:03407800BE08007F
:0C407B00506EEE75F00FA4FFE510240459
:0A408700F8EF24A7F6E434F608F67B
:0C409100E5102404F88682088683E0FA1B
:0C409D00A3E0FBA3E0FCEA4B4C703EE506
:0A40A900102404F88682088683A91B
:0C40B3001009E7F0A309E7F0A309E7F00B
:0A40BF00EF24A7FFE434F6FA7406BC
:0E40C9002FF582E43AF583E4F08F828A83A318
:0C40D700A3A3A3A3A810181818E6F08DEE
:0340E300828008D0
:0540E6000E8E05808D27
:0340EB007582FFDC
:0640EE00851081D01022B4
:0540F400AA82BA0800D9
:0C40F9005028EA75F00FA4FA24A7F58205
:0C410500E434F6F583E4F0A3F0A3F0EA44
:0A41110024A7FAE434F6FB74062A32
:08411B00F582E43BF583E4F0BA
:014123002279
:0A412400C010858110AA82BA0800BD
:05412E0040030241D036
:0D413300C0E0C0A8C2AFEA75F00FA4FA24E6
:0A414000A7FBE434F6FC8B828C83AD
:0E414A00A3A3A3A3A3E0FD7E0074072BFBE458
:0C4158003CFC7F00C002C005C006E51062
:0E41640024FBF8E6C0E008E6C0E008E6C0E094
:0E4172008B828C838FF012F399E58124FBF58C
:0A41800081D002EA24A7FAE434F625
:0E418A00FB74032AFCE43BFD90F71FE0FEA34C
:0C419800E0FFE51024F9F8E62EFE08E632
:0741A4003FFF0EBE00010FFA
:0E41AB008C828D83EEF0A3EFF074062AF5826D
:0E41B900E43BF5837401F0D0E053E080E5E0D4
:0941C70042A8D0E07582018003DA
:0341D000758200F5
:0341D300D01022E7
:0541D600AA82BA0800F6
:0C41DB00501BEA75F00FA424A7FAE4348E
:0C41E700F6FB74062AF582E43BF583E445
:0541F300F075820122BD
:0441F80075820022AA
:0541FC00AA82BA0800D0
:0C420100501DEA75F00FA424A7FAE43465
:0C420D00F6FB74062AF582E43BF583E022
:07421900FA60047582012226
:044220007582002281
:0A422400C010E581F5102407F581B4
:0C422E00E5102404F8760090F8BCE0FBDA
:06423A00BBFF031240135C
:0D42400090F71FE02401F0A3E03400F0A887
:04424D0010087600DF
:06425100A81008B60800E9
:054257004003024318C2
:0A425C00A81008E675F00FA4FC247A
:0A426600A7FDE434F6FE74062DFFF8
:0D427000E43EFA8F828A83E070030243115E
:0C427D008D828E83A3A3A3A8100808E084
:0E428900F6A3E008F690F71FE0FBA3E0FAA80A
:0C429700100808E6B5030908E6B50204AB
:0442A3007401800121
:0142A700E432
:0C42A800606774072DFBE43EFFE5102466
:0E42B40005F8A60308A6070876008D828E8303
:0C42C200E0FDA3E0FEA3E0FAC004E5105C
:0C42CE002404F8E6C0E0E5102405F8E642
:0E42DA00C0E008E6C0E008E6C0E08D828E83FA
:0E42E8008AF0122162AA82E58124FCF581D0C1
:0A42F60004E5102404F8A602EC24ED
:0A430000A7FCE434F6FA74062CF56D
:07430A0082E43AF583E4F0C0
:07431100A81008060242514A
:06431800851081D0102287
:01F89C00FF6C
:02431E007A0023
:0B432000EA75F00DA4FB24BDFCE434A2
:0C432B00F8FD74082CF582E43DF583E0F9
:0A433700FC6031EB24BDF582E43494
:0C434100F8F583E0FBA3E0FCC002C00321
:0A434D00C0047462C0E07443C0E0D5
:0B435700C003C00490000075F00022BD
:09436200D004D003D0020A80B59A
:04436B007582012234
:04436F00AA827B00A3
:0A437300EB75F00DA424BDFCE4344A
:0C437D00F8FD74082CF582E43DF583E0A7
:09438900FC6009ECB5020280039E
:034392000B80DEBF
:0A439500EB75F00DA424BDFAE4342A
:0C439F00F8FB74082AF582E43BF583E08B
:0C43AB00FC60097C008A828B838CF0226D
:0743B70090000075F00022E8
:0843BE00C010858110AA8212D3
:0E43C600436FAA82AB83ACF0EA4B4C603A74B2
:0D43D400022AFAE43BFB8A828B838CF012F4
:0B43E100F571FAA312F571FBC0037424
:0A43EC0005C0E07444C0E0C002C048
:0C43F60003E51024FBF88682088683088B
:0344020086F0221F
:08440500AA82D0038A82800321
:03440D00758200B5
:03441000D01022A7
:0844130090F7881239267A00A7
:0A441B00EA75F00DA424BDFBE434A3
:0C442500F8FC74082BF582E43CF583E001
:0E443100FB6041EA600A90F798C0021239263B
:02443F00D002A9
:0A444100EA75F00DA424BDFBE4347D
:0C444B00F8FC74082BF582E43CF583E0DB
:0E445700FB7C00C002C003C004740AC0E07504
:0E4465008206123961158115811581D0020A77
:0244730080A621
:0A44750090F79A1239267582012291
:0EF788004D6F64756C652073657475703A0D75
:02F796000A0067
:02F7980020004F
:03F79A000D0A0055
:02F89D003DAD7F
:02F89F006EAD4C
:09F8A10088B000000129010000FB
:02F8AA0001CE8D
:02F8AC000CCE80
:09F8AE009BDE00000208000000CE
:02F8B700457C8E
:02F8B9009D7C34
:0AF8BB00D2810000081704000000CD
:0CF8C50000000000000000000000000037
:02447F007A04BD
:0C448100EA14FB75F018A4FC2422F5825C
:0A448D00E434F7F583E4F0EC242298
:0C449700FCE434F7FD74162CF582E43DC3
:0E44A300F583E4F0A3F08C828D83A3A3E4F0F4
:0E44B100A3F074132CF582E43DF583E4F0A330
:0E44BF00F0A3F074062CF582E43DF583E4F0E2
:0644CD008B02EA70AF2231
:0A44D300C010E581F510240AF58100
:0A44DD00AD82A810087600A81008B0
:0C44E70008E4F608F608F67FFFE5102454
:0444F30005F8760052
:0C44F700E5102405F8E675F005A4FBAC08
:0A450300F0E5102406F8EB24F4F6AE
:0A450D00EC34F808F6E5102406F877
:0E4517008682088683E0606FEF30E76B7A00E3
:074525008B06E5102406F8E7
:0C452C00C007E5102406F886820886838C
:0E453800E0FFC3EA9FE433D0076042C007EE05
:0A45460024F4FFEC34F8FB0FBF0073
:02455000010B5D
:0E455200EA2FF582E43BF583E0FBB505047427
:03456000018001D6
:01456300E473
:0C456400D007601AE5102405F88607A8AF
:0A4570001008A602EE24F4F582EC18
:08457A0034F8F583E0FB8B022D
:034582000A80A705
:09458500E5102405F8060244F7D4
:02458E007A00B1
:03459000BA04006A
:0C459300501AC007EA75F018A42422FB9F
:0C459F00E434F7FF8B828F83E0D00760CC
:0445AB00030A80E19E
:0745AF00EF30E7030247842F
:0345B600BA040044
:0545B9004003024784ED
:0A45BE00EA75F018A42422FAE43490
:0A45C800F7FBA8100808A60208A6D9
:0C45D20003087600A8100808740626FAFA
:0E45DE00E40836FB0886048A828B838CF0E4A6
:0C45EC0012F089A8100808740126FAE4F7
:0E45F8000836FB0886048A828B838CF0EF1253
:0C460600F089A8100808740626FAE408E1
:0E46120036FB088604740B2AFAE43BFB8A820E
:0E4620008B838CF0E412F089A3E412F089A8D9
:0C462E00100808740426FAE40836FB08A3
:0E463A0086048A828B838CF0E412F089A3E45C
:0C46480012F089A8100808740226FAE499
:0E4654000836FB0886048A828B838CF0E41201
:08466200F089A3E412F089A81D
:0C466A0010080886820886830886F0EDA0
:0C46760012F089A8100808741626FAE457
:0D4682000836FB0886048A828B838CF0E5E5
:0C468F001024FCF8E612F089A308E612E3
:07469B00F089A8100808E5F2
:0C46A200102408F9741326F7E408360908
:0C46AE00F70809E6F7E5102408F88682FA
:0E46BA000886830886F012F571FDA312F571D3
:0C46C800FEA312F571FAED4E4A7040E5B9
:0A46D4001024FCF8E608467036E5F5
:0C46DE00102408F8C0077403C0E07582C7
:0E46EA0005121B6BAD82AE83AAF01581D007BE
:0C46F800E5102408F886820886830886F6
:0D470400F0ED12F089A3EE12F089A3EA1285
:02471100F0892D
:0D471300C2D575F005EF30E704B2D5F4040F
:0E472000A430D50AF42401C5F0F43400C5F02D
:0A472E0024F4FA74F835F0FB0ABA1F
:0347380000010B72
:0C473B00A81008E62AF582E43BF583E0B4
:0E474700FAF58212436FAA82AB83ACF0EA4B04
:0E4755004C602C740A2AFAE43BFB8A828B83A8
:0C4763008CF012F571FA6019A81008081B
:0E476F00740626FBE40836FC0886058B828C57
:07477D00838DF0EA12F089C0
:0C478400A810080886820886830886F0CA
:06479000851081D010220B
:0D479600AA82AB83ACF0C002C003C00412C5
:0E47A300494FAD82D004D003D002ED20E70EC6
:0E47B1008A828B838CF0E412F08975820122DB
:0447BF0075820022DD
:0A47C300C010858110C082C083C0C1
:0C47CD00F0E5812409F581E51024FBF8DB
:0C47D9008605088606088607E510240403
:0D47E500F8740B2DF6E43E08F608A607E573
:0C47F200102404F886820886830886F0F4
:0E47FE0012F571FAA312F571FB4A6011BAFEB2
:06480C0005BB000280095B
:09481200C374BF9A74F09B5006B8
:06481B007582000249490C
:0C482100A81008B6000A08B6000608B689
:04482D0000028041C4
:0A483100C005C006C007A81008E586
:0C483B00102407F9740226F7E40836097F
:0C484700F70809E6F7E5102407F8868260
:0E4853000886830886F012F571FDA312F57138
:09486100FEE4BD0004BE000104E8
:08486A00D007D006D00570064E
:06487200758200024949B5
:0E4878008D828E838FF012F571FA605CC005A0
:0C488600C006C007A81008740626FDE458
:0D4892000836FE0886078D828E838FF01297
:0E489F00F571FBD007D006D005EB6004EAB53A
:0248AD00032CDA
:0C48AF00A81008740626FAE40836FB087E
:0E48BB0086047403C0E0E4C0E0C005C006C07F
:0E48C900078A828B838CF012F399E58124FB21
:0448D700F5818022C5
:0548DB007582008069F8
:0C48E000126536AA82A81008740126FB9D
:0E48EC00E40836FC0886058B828C838DF0EA8A
:0348FA0012F08930
:0C48FD00E5102404F886820886830886F3
:0B490900F012F571FAA312F571FBE546
:0C491400102407F886820886830886F0CD
:0A492000EA12F089A3EB12F089A857
:0C492A001008740426FCE40836FD088622
:0E493600068C828D838EF0EA12F089A3EB12BC
:05494400F089758201FD
:06494900851081D0102250
:08494F00AA82AB83ACF07D00ED
:03495700BD04009C
:0C495A00501FED75F018A42422FEE43478
:0C496600F7FF7800EAB5060AEBB507067B
:06497200ECB50002800319
:034978000D80DCD3
:03497B00BD040078
:05497E0050038D8222B0
:044983007582FF2218
:0A498700C010858110C082C083E5D6
:0C499100812411F581E5102404F8E4F6FF
:0C499D0008F608F6E51024FBF886070871
:0C49A9008604088605E5102408F8740B4D
:0C49B5002FF6E43C08F608A605E51024E7
:0E49C10008F886820886830886F012F571FEDB
:0C49CF00A312F571FA4E6008A81008E66B
:0449DB000846700911
:0949DF0090000075F000024BE7A6
:0E49E8008F828C838DF012F571FA24FB40371C
:0749F600EA2A2A9049FD7333
:0749FD00024A2D024A1202DA
:064A04004A24024A1BE5F2
:084A0A00102407F87608802251
:094A1200E5102407F8760880196C
:094A1B00E5102407F87604801070
:094A2400E5102407F87602800772
:074A2D00E5102407F87600F4
:094A34007B00A8100808087600B8
:084A3D00A810080808B60400E7
:054A45004003024B8F4D
:0C4A4A00C003A810080808E675F018A4C6
:0A4A5600C0E0E510240BF8D0E024C6
:084A600022F6E434F708F6E544
:0C4A680010240BF88682088683A3A3A309
:0C4A7400A3E0FBA3E0FAA81008E6B503DD
:0A4A80000908E6B502047401800184
:014A8A00E447
:074A8B00D0037003024B7F12
:0C4A9200C003E510240BF8740626F6E4BF
:0C4A9E000836F6E510240BF8740B26F522
:0C4AAA0082E40836F583E510240DF8E0E6
:0C4AB600F6A3E008F6E5102408F886825C
:0E4AC2000886830886F012F571FEA312F571C6
:0C4AD000FAE510240DF8E6B5060908E62A
:074ADC00B502047401800122
:014AE300E4EE
:074AE400D0037003024B7FB9
:0B4AEB00E5102407F8E66071C003E549
:0A4AF600102407F8E510240DF9E67E
:0C4B0000F7097700E510240FF874012F6E
:0C4B0C00F6E43C08F608A605E510240BB2
:0E4B1800F8740126FAE40836FB7E00C004C0E3
:0C4B260005C007E510240DF8E6C0E0080B
:0C4B3200E6C0E0E510240FF8E6C0E00843
:0E4B3E00E6C0E008E6C0E08A828B838EF012AB
:0E4B4C00F2DCAA82AB83E58124FBF581D00761
:0A4B5A00D005D004EA4BD003701B15
:0A4B6400EB75F018A42422FAE434E3
:0A4B6E00F7FEE5102404F8A6020883
:074B7800A60608760080107C
:0A4B7F00A81008080806A81008088E
:064B8900088603024A3D0C
:0C4B8F00E5102404F8E608460846703FD4
:014B9B00FA1F
:034B9C00BA040058
:0C4B9F005039EA75F018A42422FBE4341D
:0C4BAB00F7FC8B828C83A3A3E0FDA3E049
:0C4BB700FEA81008E6B5050708E6B506E4
:034BC3000280026B
:024BC600800F5E
:0C4BC800E5102404F8A60308A6040876F3
:034BD4000080035B
:034BD7000A80C28F
:0C4BDA00E5102404F88682088683088613
:014BE600F0DE
:064BE700851081D01022B0
:0A4BED00C010858110C082C083C093
:0E4BF700F0E5812408F58190001412600BADEA
:0C4C050082AE83AFF0E5102404F8A60591
:0E4C110008A60608A607ED4E4F7003024E3DA2
:0C4C1F00E5102404F886820886830886CD
:0C4C2B00F0A91009E712F089A309E712B4
:094C3700F089A309E712F089E5F8
:0A4C4000102407F8E4F608F6A810A7
:0E4C4A0008740126FFE40836FD0886067A008D
:0E4C58008F828D838EF012F571FB75F005A42E
:0A4C6600FBACF0EB24F4F582EC3413
:0C4C7000F8F583C007C005C006E0FDC3D6
:0E4C7C00EA9DE433D006D005D007605DC00786
:0A4C8A00C005C006EB24F4FBEC3477
:074C9400F8FC0BBB00010C52
:0E4C9B00EA2BF582E43CF583E0FBF582C002D3
:0E4CA900C006C00712436FAB82AC83ADF0D0E3
:0E4CB70007D006D00274092BFBE43CFC8B8274
:0C4CC5008C838DF012F571FB7C00E51073
:0E4CD1002407F8EB26F6EC0836F60AD006D0DB
:064CDF0005D007024C584D
:0C4CE500E5102404F8742026FAE40836D8
:0C4CF100FB0886048A828B838CF0E5109F
:0E4CFD002407F8E612F089A308E612F089E514
:0C4D0B00102404F8742226FAE40836FB99
:0C4D17000886048A828B838CF0E510244F
:0D4D230007F8E612F089A308E612F089E512
:0C4D3000102404F8741D26FAE40836FB79
:0E4D3C000886048A828B838CF0740B12F08937
:0C4D4A00E5102404F8741E26FAE4083674
:0E4D5600FB0886048A828B838CF0E412F089BD
:0C4D6400E5102404F8741F26FAE4083659
:0D4D7000FB0886048A828B838CF07401128C
:0C4D7D00F089E5102404F8742626FAE4FE
:0E4D89000836FB08860474012AFDE43BFE8C0C
:0E4D9700078D828E838FF0E412F08974022A59
:0E4DA500FDE43BFE8C078D828E838FF0E412BE
:0E4DB300F08974052AFDE43BFE8C078D828E8C
:0E4DC100838FF0E412F0898A828B838CF0E4F9
:0C4DCF0012F089A81008740626FAE40807
:0C4DDB0036FB088604E5102404F874037D
:0E4DE70026FDE40836FE088607740DC0E0E4E1
:0E4DF500C0E0C002C003C0048D828E838FF028
:0C4E030012F399E58124FBF581E51024F1
:0E4E0F0004F8741026FAE40836FB08860474D2
:0B4E1D000DC0E0E4C0E074A9C0E07428
:0C4E2800F8C0E0E4C0E08A828B838CF0CC
:094E340012F399E58124FBF581DC
:0C4E3D00E5102404F886820886830886AD
:074E4900F0851081D010225A
:0E4E5000AA82AB83ACF0EA4B4C60098A828BDD
:064E5E00838CF0126238A3
:044E64007582012230
:0A4E6800C010858110C082C083C015
:0C4E7200F0058105810581A810088682EA
:0E4E7E000886830886F012494FE582FD30E772
:074E8C000675820002512FA0
:0C4E9300A81008740126FDE40836FE0893
:0E4E9F0086078D828E838FF012F571FDC0059F
:0D4EAD00126536AE82D005EDB50602800319
:034EBA00024F4460
:0C4EBD00E51024F8F88605088606088633
:0E4EC9000774262DFAE43EFB8F048A828B8349
:0C4ED7008CF0740112F089E5102404F83E
:0C4EE300741E2DF6E43E08F608A607A891
:0B4EEF00100886820886830886F012F7
:0C4EFA00F571FAE5102404F886820886A1
