:0600000002008602AA4C7A
:01000B0032C2
:0100130032BA
:03001B00023C4B59
:0100230032AA
:03002B0002321688
:01003300329A
:01003B003292
:01004300328A
:01004B003282
:01005300327A
:01005B003272
:01006300326A
:01006B003262
:03007300023CCC80
:01007B003252
:0300830002A9A22D
:0300ED000200F01E
:0500F00012011180FE69
:0400F50043FDFB22AA
:0300F900D286228A
:0300FC00C2862297
:0300FF00D2872283
:03010200C287228F
:03010500D284227F
:03010800C284228C
:03010B00D281227C
:03010E00C2812289
:070111001200F51200F912C3
:0601180000FF12010512B8
:0E011E00349EE4C0E0C0E0C0E0E4C0E0E4C015
:0D012C00E0C0E0C0E074DCC0E0E4C0E074BE
:0A013900CAC0E074EEC0E07480C09C
:0E014300E0900157120541E58124F4F5811288
:060151000B2A90000022C1
:0A015700C010E581F5102443F58186
:0A016100A81008087600A81008088E
:0E016B0008760090C20075F001E412361F9075
:090179000064120A3D12528C12BE
:08018200DD11900064120A3D3A
:0B018A0012010EE5BE54036002802746
:0E01950043BE0343870190DF17740CF0E4A310
:0401A300F043C6401F
:0C01A70090DF17E0FCA3E0FD4CB4010069
:0901B300E433FC20E4EE43BE0439
:0601BC003080030204FA8A
:0E01C20012010B90DF177404F0E4A3F075E94E
:0E01D0000075918053BEFB900064120A3D53EF
:0501DE00BEFC43870197
:0E01E30090DF17E0FCA3E0FDEC20E4F453C62F
:0E01F100B843BE0490F0B2E0FCA3E0FDA3E032
:0E01FF00FEEC4D4E705EC0E0C0E07582021254
:0D020D0041E5AF82AB83AAF0158115819009
:0E021A00F0B2EFF0A3EBF0A3EAF0EF4B4A6076
:0A022800327495C0E074F0C0E0E409
:0E023200C0E08F828B838AF01244D5AA821519
:0E0240008115811581BA010B90F0AFE4F0A397
:05024E00F0A3F0803177
:0802530090EED6123638802926
:08025B0090EEEF12363880210D
:0D0263008C828D838EF01244A890EF09125A
:0C027000363890F0B2E4F0A3F0A3F09058
:08027C00F0AFE4F0A3F0A3F0E1
:0E02840090F0B2E0FAA3E0FBA3E0FCBA0009A0
:09029200BB0006BC00030204D805
:0B029B00A810080808E660030204D861
:0E02A6008A828B838CF01248FFAA82AB83AC55
:0C02B400F0E510243CF8A60208A60308A0
:0C02C000A604E510243CF8E608460846B9
:0502CC0070030204C0F4
:0C02D100E5102404F888057E007F408DB5
:0D02DD00828E838FF0C00012DE74D000907E
:0E02EA000032C000120A3DD0008605BD880219
:0202F800800381
:0302FA000203A755
:0A02FD00E510243CF9C000E51024D0
:0E0307003FF8742C27F6E4093708F60908E7DA
:05031500F6D0007E009F
:08031A00EE24C8500302045C4C
:0C032200E510243CF9742227FBE40937A5
:0C032E00FC0987028B828C838AF0E510AA
:0E033A002442F912ED1EF7A312ED1E09F7E59D
:0C034800102442F9740127FFE40937FD7E
:0D0354008B828C838AF0EF12E836A3ED1245
:0A036100E836E510243FF9C000E57E
:0C036B00102442F8E627FA08E60937FBE8
:0E037700098704D000EE28F987058A828B835F
:0C0385008CF0ED12E836BDE108A910096B
:05039100097701800D59
:0B039600BDFE0AA9100909B70103020F
:0203A100045CFA
:0403A3000E02031A29
:0A03A700E510243CF9C000E5102425
:0E03B1003FF8742C27F6E4093708F60908E730
:0803BF00F6D000A91009770037
:0B03C700A91009E724C0500302045CE9
:0C03D200E510243CF9742227FEE40937F2
:0C03DE00FF0987058E828F838DF0E510EB
:0E03EA002442F912ED1EF7A312ED1E09F7E5ED
:0C03F800102442F9740127FCE40937FAD4
:0D0404008E828F838DF0EC12E836A3EA1291
:0A041100E836E510243FF9C000E5CD
:0C041B00102442F8E627FA08E60937FB37
:0C042700098704D000A91009E728F98714
:0E043300058A828B838CF0ED12E836BDE1085D
:08044100A91009097701800CE4
:0C044900BDFE09A9100909B701028007D7
:07045500A91009070203C70B
:0E045C0090F0AFE4F0A3F0A3F090F0B2E0FA5D
:0C046A00A3E0FBA3E0FCE510243CF8E656
:0C047600C0E008E6C0E008E6C0E074A2A8
:0C048200C0E074F0C0E0E4C0E08A828BAF
:0E048E00838CF0124B7AAA82E58124FAF58164
:0C049C00BA0109A8100808087601801EAB
:0C04A800E510243CF88682088683088654
:0804B400F0125F4A90EF1A12EA
:0404BC003638800648
:0604C00090EF2E12363809
:0C04C600E510243CF88682088683088636
:0604D200F0124B62801FD6
:0E04D80090F0B2E0FAA3E0FBA3E0FCEA4B4C8C
:0A04E600700890EF3B1236388007D3
:0704F000A8100808087600BF
:0304F7003080FD55
:0B04FA00A810080808E6700302018A41
:0E05050090F0B2E0FAA3E0FBA3E0FC8A828B48
:0E051300838CF01244A890F0AFE4F0A3F0A3A4
:0C052100F090F0B2E4F0A3F0A3F0A810FA
:0C052D000808087600A8100808760002F4
:06053900018A851081D04B
:02053F00102288
:0CEECA00524649442052656164657200A4
:0EEED600536F636B65742062696E64696E67CA
:0BEEE400206661696C65642E0D0A0059
:0EEEEF00536F636B6574206372656174696FA5
:0CEEFD006E206661696C65642E0D0A00D1
:0EEF0900536F636B657420636C6F7365642EC9
:03EF17000D0A00E0
:0EEF1A0050696E672073656E64206661696CD5
:06EF280065642E0D0A00D5
:0DEF2E004E6F206275666665722E0D0A003A
:0DEF3B004E6F20736F636B65742E0D0A001E
:0DF023000400000000000000000000B3F039
:0DF0300004FFFFFFFFFFFFFFFF0000FE00D9
:03F03D00000000D0
:03F04000000000CD
:0500DF0090E066E4F072
:0A054100C010858110C082C0830540
:0C054B008105810581E51024F9F8868205
:0D055700088683121756AC82AD83AEF0A863
:0C05640010080808A60408A60508A60652
:0C057000A810080808B6000B08B6000729
:07057C0008B600030207337B
:0A058300E51024F5F8E6C0E0E510ED
:0E058D0024FBF8E6C0E008E6C0E008E6C0E0A7
:0C059B00E51024F9F8E6C0E008E6C0E036
:0C05A700A81008080886820886830886D1
:0C05B300F01214CEE58124FAF581A810A6
:0E05BF00080808742026FFE40836FA088603B0
:0E05CD008F828A838BF012ED1EFFA312ED1EAB
:0C05DB00FAA312ED1EFBE51024F6F8E672
:0C05E700C0E008E6C0E008E6C0E0A81094
:0E05F30008E6C0E008E6C0E08F828A838BF045
:0E060100122E99AA82AB83AFF0E58124FBF59F
:0C060F0081A8100808088682088683086D
:0E061B0086F0EA12E836A3EB12E836A3EF12DF
:0E062900E836C0E0C0A8C2AF90F0B9E02401EE
:0C063700F090F0B9E0FABA0117A8100822
:0E064300080890F0B5E6F008A3E6F008A3E67C
:06065100F012163B803F91
:0E06570090F0BEE0FA703890F0B5E0FAA3E043
:0E066500FBA3E0FF741F2AFAE43BFB8A828BA2
:0C067300838FF012ED1EFAE51024F5F85C
:0B067F00C3E69A4012A810080808907B
:0C068A00F0B5E6F008A3E6F008A3E6F0E7
:0C069600A810080808741F26FAE40836B3
:0E06A200FB0886078A828B838FF012ED1EFA0A
:0E06B00090F0BCE0FBC39A500590F0BCEAF05D
:0C06BE00A810080808742326FBE4083686
:0E06CA00FF08860490E066E0FD8B828F838C33
:0C06D800F012E83690E06674012DF090FE
:0D06E400F0BDE0FBC39A500590F0BDEAF0B8
:0C06F100A810080808740326FBE4083673
:0C06FD00FC088605EA75F00CA42400FA45
:0C070900E434E0FE7F00C003C004C00523
:0E0715008A828E838FF01228E61581158115D9
:0E072300817A01D0E053E080E5E042A8D0E00A
:02073100800244
:020733007AFF4B
:0C073500BA0163E51024F2F88603088680
:0E07410004088605BB0008BC0005BD00028050
:01074F001B8E
:0C0750008B828C838DF0A810080808E64E
:0D075C0012E836A308E612E836A308E612FC
:02076900E83670
:0E076B0090F0BEE0FB602990F0B5E0FBA3E04B
:0E077900FCA3E0FD741F2BFBE43CFC8B828C88
:0C078700838DF012ED1EFBE51024F5F848
:08079300C3EB9650031231384C
:08079B008A82851081D0102232
:0A07A300C010E581F5102406F58171
:0D07AD00AA82AB83ACF0C0E0C0A8C2AF9040
:0E07BA00F0B5E0FDA3E0FEA3E0FFEAB5050EFA
:0E07C800EBB5060AECB507067A007B007C0054
:0B07D600E4BA0007BB0004BC000104F3
:0C07E100FD601290F0B5A81008E0F6A32F
:0907ED00E008F6A3E008F6800B19
:0B07F600A81008A60208A60308A6042D
:0C080100C005A8100886020886030886BF
:0E080D000474032AFEE43BFF8C058E828F8369
:0E081B008DF0C002C003C004C005122CD8D05E
:0C08290005D004D003D002E5102404F830
:0C08350074112AF6E43B08F608A604E55E
:0C084100102404F8740B26FDE40836FEB9
:0E084D000886078D828E838FF012ED1EFDA3AC
:0E085B0012ED1EFEA312ED1EFFED4E4FD00556
:0C0869006020E5102404F88682088683D5
:0E0875000886F0C002C003C004C005122CD8D3
:08088300D005D004D003D0021F
:0E088B0074032AFAE43BFBC005C002C003C0A0
:0E0899000490E05A75F0001228E615811581D2
:0E08A7001581D00590F0B8E02401F0D0E053A8
:0E08B500E080E5E042A8D0E090F0BEE0FA60FE
:0708C30006ED60031231385D
:0608CA00851081D0102210
:0A08D000C010858110C082C083C0F3
:0B08DA00F00581E5102404F876001200
:0C08E5000B7CA810088682088683088619
:0B08F100F012ED1EFEA312ED1EFFE54D
:0C08FC001024FCF8E62EFD08E63FFA8D03
:0E0908000390F0BAE0FCA3E0FDC3EC9EED9F6F
:0E091600501FC3EB9EEA9F503590F0BAE0FCF4
:0C092400A3E0FDC3EC9BED9A5026E5100B
:070930002404F87601801D8C
:0E093700C3EB9EEA9F400F90F0BAE0FCA3E0F5
:08094500FDC3EC9BED9A500785
:07094D00E5102404F8760117
:0C095400A8100886820886830886F0EB55
:0909600012E836A3EA12E836E5BC
:0A096900102404F8E67003020A2CC3
:0E09730090F0B5E0FCA3E0FDA3E0FE74032CC1
:0E098100FCE43DFD8C828D838EF0C002C0032D
:0E098F00122CD8D003D00290F0B5E0FCA3E00B
:0E099D00FDA3E0FE74032CFCE43DFD8C828D76
:0D09AB00838EF0EB12E836A3EA12E83690D6
:0E09B800F0BAE0FCA3E0FDC3EB9CEA9D5034D6
:0E09C60090F0B5E0FAA3E0FBA3E0FC74032A76
:0E09D400FAE43BFB90E04BE0FDA3E0FEA3E065
:0E09E200FFC002C003C0048D828E838FF0120E
:0A09F0002AA51581158115818032BA
:0E09FA0090F0B5E0FAA3E0FBA3E0FC74032A42
:0E0A0800FAE43BFB90E048E0FDA3E0FEA3E033
:0E0A1600FFC002C003C0048D828E838FF012D9
:080A24002AA515811581158139
:0B0A2C00120B95E582FA7003123138BE
:060A3700851081D01022A1
:0D0A3D00AA82AB837C00EA4B7003020B23FE
:0E0A4A00C002C003120B7CD003D00290F0BAA1
:0E0A5800E0FDA3E0FEEA2DFAEB3EFB90F0B5C8
:0E0A6600E0FDA3E0FEA3E0FF74032DFDE43EDF
:0E0A7400FE8D828E838FF0C002C003122CD83C
:0E0A8200D003D00290F0B5E0FDA3E0FEA3E0AB
:0E0A9000FF74032DFDE43EFE8D828E838FF0F9
:0A0A9E00EA12E836A3EB12E83690E6
:0E0AA800F0BAE0FDA3E0FEC3EA9DEB9E5034E1
:0E0AB60090F0B5E0FAA3E0FBA3E0FD74032A84
:0E0AC400FCE43BFB90E04BE0FEA3E0FFA3E070
:0E0AD200FAC004C003C0058E828F838AF01222
:0A0AE0002AA51581158115818032C9
:0E0AEA0090F0B5E0FAA3E0FBA3E0FD74032A50
:0E0AF800FCE43BFB90E048E0FEA3E0FFA3E03F
:0E0B0600FAC004C003C0058E828F838AF012ED
:080B14002AA515811581158148
:070B1C00120B95AA828A0466
:060B2300EC700302313802
:010B290022A9
:0E0B2A00E4C0E0C0E0C0E0E4C0E0E4C0E0C031
:0C0B3800E0C0E07450C0E0E4C0E074488D
:0B0B4400C0E074EFC0E07480C0E090DF
:0E0B4F0014C9120541AA82E58124F4F581BA89
:0E0B5D000112C2AF90F0BE7401F090F0BAE445
:060B6B00F0A3F00230C20D
:010B71002261
:0A0B7200C2AF90F0BEE4F00231378C
:0E0B7C00C0E0C0A8C2AF90F0BFE02401F0D0EE
:0B0B8A00E053E080E5E042A8D0E0224C
:0A0B9500C010E581F5102406F5817B
:0C0B9F00A810087600C0E0C0A8C2AF900B
:090BAB00F0BFE01490F0BFF090DF
:090BB400F0BFE0FB6003020D6DCF
:0A0BBD0090F0B9E0FB7003020D6D2B
:060BC700A81008087600EA
:0A0BCD0090E04EE0FCE4BC000104DF
:040BD700FCB4010069
:0E0BDB00E433FC603190E05475F00012ED1E22
:0E0BE900FCA312ED1EFDA312ED1EFE74082CDF
:0E0BF700FCE43DFD8C828D838EF012ED1EFC21
:0C0C0500A312ED1EFDA312ED1EFE8006E2
:060C11007C007D007E0066
:0E0C17008C078D038E02BC0009BD0006BE00D6
:040C250003020D2D8C
:0E0C290074112FFCE43BFD8A068C828D838EB5
:0E0C3700F0C002C003C007122CD8D007D003B3
:0E0C4500D00274032FFCE43BFD8A068C828DE6
:0E0C5300838EF0C002C003C007122CD8D00759
:0E0C6100D003D002741F2FFCE43BFD8A068CEA
:0B0C6F00828D838EF0A8100808081288
:0E0C7A00ED1EF6C007C003C00290F0BDE0FA08
:0C0C8800A810080808C3EA96E433D00264
:0C0C9400D003D007600AA81008080890E0
:040CA000F0BDE6F0CD
:0C0CA400E5102404F874032FF6E43B086C
:0E0CB000F608A6028C828D838EF012ED1EFADD
:0A0CBE0075F00CA42400FAE434E001
:0C0CC800FB7F00C004C005C006E510243E
:0E0CD40004F8E6C0E008E6C0E008E6C0E08AEA
:0E0CE200828B838FF01228E615811581158113
:0D0CF000D006D005D0048C828D838EF012CA
:0E0CFD00ED1EFC90F0B5E0FAA3E0FBA3E0FDD5
:0E0D0B00741F2AFAE43BFB8A828B838DF01260
:0B0D1900ED1EFAC3EC9A5003020BCD54
:090D2400A81008087601020BCDAD
:070D2D0090F0C0E0FA601B2A
:0B0D340090F0C0E0FA600E120DBA90C3
:0A0D3F00F0C0E01490F0C0F080EB6B
:060D4900A8100808760165
:090D4F00A8100808B60102800892
:080D580090F0C1E0FABA010DB0
:0B0D6000A81008760190F0C1E4F0122A
:020D6B0031381D
:0C0D6D00D0E053E080E5E042A8D0E0A810
:080D790010088682851081D06C
:020D810010223E
:0E0D8300C0E0C0A8C2AF90F0BAE0FAA3E0FB57
:0E0D9100D0E053E080E5E042A8D0E08A828BFB
:020D9F008322AD
:0E0DA100C0E0C0A8C2AF90F0B9E0FAD0E053B5
:0B0DAF00E080E5E042A8D0E08A82224C
:080DBA00C01085811005819035
:090DC200F0BFE0FA6003020FAB80
:0D0DCB0090F0BAE02401F0A3E03400F090B5
:0E0DD800F0BAE0FAA3E0FB4A703390E048E086
:0E0DE600FAA3E0FBA3E0FC90E04BE0FDA3E0ED
:0E0DF400FEA3E0FF90E048EDF0A3EEF0A3EFC9
:0D0E0200F090E04BEAF0A3EBF0A3ECF090D1
:060E0F00F0C2E02401F036
:0E0E150090E048E0FAA3E0FBA3E0FC8A828BA9
:0C0E2300838CF012ED1EFAE4BA0001040A
:040E2F00FAB4010010
:0E0E3300E433FA604A90E048E0FAA3E0FBA343
:0E0E4100E0FC74042AFAE43BFB74022AFAE493
:0E0E4F003BFB8A828B838CF012ED1EFAA312FD
:0E0E5D00ED1EFBA312ED1EFC74082AFAE43B06
:0D0E6B00FB8A828B838CF012ED1EFAA3121D
:0A0E7800ED1EFBA312ED1EFC800628
:060E82007A007B007C00F9
:0E0E88008A058B068C07BA0009BB0006BC0069
:040E960003020FB58F
:0E0E9A0074032DFAE43EFB8F048A828B838C56
:0E0EA800F012ED1EFAA312ED1EFBC005C006EF
:0E0EB600C00790F0BAE0FCA3E0FDC3EC9AED9B
:0E0EC4009BE433D007D006D0056003020FB5C3
:0E0ED20074032DFAE43EFB8F048A828B838C1E
:0E0EE000F0C005C006C007122CD8D007D006FF
:0E0EEE00D00574112DFAE43EFB8F04C005C040
:0E0EFC0006C007740B2AFDE43BFE8C078D82B6
:0E0F0A008E838FF012ED1EFDA312ED1EFEA3CE
:0E0F180012ED1EFFED4E4FD007D006D0056043
:0E0F2600158A828B838CF0C005C006C00712AE
:080F34002CD8D007D006D0052F
:0E0F3C00741F2DFAE43EFB8F048A828B838C97
:0C0F4A00F0A8100812ED1EF6C005C0064D
:0C0F5600C00790F0BDE0FDA81008C3ED3E
:0C0F620096E433D007D006D0056008A844
:070F6E00100890F0BDE6F051
:0E0F750074032DFDE43EFE8A828B838CF01205
:0C0F8300ED1EFA75F00CA42400FAE43412
:0C0F8F00E0FB7C00C005C006C0078A82A1
:0E0F9B008B838CF01228E615811581158102DA
:020FA9000E1523
:0A0FAB0090F0C0E02401F0123F3680
:0A0FB50090F0C0E0FA7003123F361E
:060FBF00851081D0102214
:0E0FC50090F0BFE0FA600790F0C17401F022D6
:0C0FD30090F0BDE0FA75F00CA42400FAC8
:0C0FDF00E434E0FB8A828B83E0700B900E
:0A0FEB00F0BDE01490F0BDF080DED0
:0C0FF50090F0BDE0FA75F00CA42400FAA6
:09100100E434E0FB0ABA00010B23
:0C100A0090F0BDE0FC75F00CA42400FC8C
:0C101600E434E0FD8C828D83A3E0FCA399
:0E102200E0FDA3E0FE74022CFCE43DFD8C8298
:0E1030008D838EF012ED1EFCA312ED1EFDA3AB
:0E103E0012ED1EFE8A828B83ECF0A3EDF0A370
:0C104C00EEF090F0BDE0FA75F00CA4246A
:0A10580000FAE434E0FB8A828B8387
:0E106200A3E0FAA3E0FBA3E0FC90F0BDE0FDEC
:0A10700075F00CA42400FDE434E048
:0E107A00FE74042DFDE43EFE7F00EAB5056124
:0E108800EBB5065DECB5075990F0BDE0FA75CA
:0A109600F00CA42400FAE434E0FB9F
:0510A0000ABA00010B7B
:0C10A50090F0BDE0FC75F00CA42400FCF1
:0C10B100E434E0FD8C828D83A3E0FCA3FE
:0E10BD00E0FDA3E0FE74022CFCE43DFD8C82FD
:0E10CB008D838EF012ED1EFCA312ED1EFDA310
:0E10D90012ED1EFE8A828B83ECF0A3EDF0A3D5
:0210E700EEF029
:0C10E90090F0BDE0FA75F00CA42400FAB1
:0C10F500E434E0FB8A828B83A3E0FAA3C2
:0E110100E0FBA3E0FC74082AFAE43BFB8A82C0
:0E110F008B838CF012ED1EFAA312ED1EFBA3D3
:0E111D0012ED1EFC90F0B5EAF0A3EBF0A3EC8F
:02112B00F022B0
:0A112D00C010858110AA82AB83ACCC
:0E113700F090F0B5E0FDA3E0FEA3E0FF741120
:0E1145002DFDE43EFEC005C006C0078A828B69
:0D115300838CF0122AA5158115811581905D
:0E116000F0B5E0FAA3E0FBA3E0FC74032AFA6A
:0D116E00E43BFB8A828B838CF0122CD8901E
:0C117B00F0BAE0FAA3E0FBE51024FCF859
:0E118700E62AFA08E63BFB90F0B5E0FCA3E098
:0E119500FDA3E0FE74032CFCE43DFD8C828D76
:0D11A300838EF0EA12E836A3EB12E83690D6
:0E11B000F0BAE0FCA3E0FDC3EA9CEB9D5034D6
:0E11BE0090F0B5E0FAA3E0FBA3E0FC74032A76
:0E11CC00FAE43BFB90E04BE0FDA3E0FEA3E065
:0E11DA00FFC002C003C0048D828E838FF0120E
:0A11E8002AA51581158115818032BA
:0E11F20090F0B5E0FAA3E0FBA3E0FC74032A42
:0E120000FAE43BFB90E048E0FDA3E0FEA3E033
:0E120E00FFC002C003C0048D828E838FF012D9
:08121C002AA515811581158139
:03122400D01022C5
:0A122700C0108581100581058105C6
:0E12310081AA82AB83ACF012ED1EFDE4BD007D
:02123F000104A8
:04124100FDB40100F7
:0E124500E433FD603F74042AFAE43BFB7402BC
:0E1253002AFAE43BFB8A828B838CF012ED1E9C
:0E126100FAA312ED1EFBA312ED1EFC74082A68
:0E126F00FAE43BFB8A828B838CF012ED1EFAB0
:0C127D00A312ED1EFBA312ED1EFC800668
:061289007A007B007C00EE
:0C128F00A81008A60208A60308A604A8E0
:0C129B001008741126FDE40836FE0886D9
:0E12A700078D828E838FF0122CD890F0BFE05E
:0C12B500FD7070A81008740326FDE4080A
:0E12C10036FE0886078D828E838FF0122CD8A1
:0C12CF00A81008741F26FDE40836FE0875
:0D12DB0086078D828E838FF012ED1EFD9030
:0D12E800F0BDE0FEC39D500590F0BDEDF09F
:0C12F500A81008740326FEE40836FF0869
:0C1301008602ED75F00CA42400FBE4341F
:0C130D00E0FC7D00C006C007C0028B821F
:0E1319008C838DF01228E615811581158180D8
:0113270023A2
:0C132800A81008741126FAE40836FB082F
:0E1334008604C002C003C00490E04E75F000B5
:091342001228E6158115811581C0
:0C134B00A81008741F26FAE40836FB08FE
:0D13570086048A828B838CF012ED1EFA90C2
:0E136400F0B5E0FBA3E0FCA3E0FD741F2BFB43
:0E137200E43CFC8B828C838DF012ED1EFBC3DD
:08138000EA9B40047A0180029F
:021388007A00E9
:08138A008A82851081D0102237
:0E139200AA82AB83ACF090F0C2E0FD8A828BA1
:0B13A000838CF012E8360ABA00010B43
:0E13AB0090F0BAE0FDA3E0FE8A828B838CF006
:0913B900ED12E836A3EE02E8365D
:0A13C200C010858110C082C083C0F6
:0C13CC00F0058105810581A810088682CB
:0E13D8000886830886F012ED1EFD90F0C2E03C
:0613E600FEB50502803196
:0C13EC00A81008740126FDE40836FE0875
:0E13F80086078D828E838FF012ED1EFDA312EC
:0E140600ED1EFE90F0BAE0FFA3E0FAC3ED9FEA
:09141400EE9A50057D010214BAA4
:0C141D00A81008740126FEE40836FF0841
:0E14290086028E828F838AF012ED1EFAA312C5
:0E143700ED1EFB90F0BAE0FCA3E0FEECC39AC1
:0A144500FCEE9BFEE51024FBF8E529
:0C144F00102404F9E6F70809E6F7080984
:0C145B00E6F7E5102404F886820886837A
:0E1467000886F012ED1EFDA312ED1EFFC3EC71
:0E1475009DEE9F503E90F0BAE0FCA3E0FEEC2E
:0E148300C39AFAEE9BFBEDC39AFAEF9BFBE5D2
:0C149100102404F886820886830886F088
:0A149D00EA12E836A3EB12E836A8C5
:0B14A700100886820886830886F01279
:0614B20013927D00800290
:0214B8007D01B4
:0814BA008D82851081D0102203
:0714C20090F0C17401F0225B
:0514C9001216A180FBDA
:0A14CE00C010858110C082C083C0E9
:0C14D800F0A81008742C26FDE40836FE75
:0C14E4000886078D828E838FF0E51024AF
:0D14F000FCF8E612E836A308E612E836A87C
:0C14FD001008742426FDE40836FE088662
:0C150900077408C0E0E4C0E0E51024F91D
:0E151500F8E6C0E008E6C0E008E6C0E08D821F
:0E1523008E838FF012EC4FE58124FBF581A83A
:0C1531001008742426FDE40836FE08862D
:0E153D000774072DFDE43EFE8D828E838FF035
:0C154B00E412E836E51024F8F8B60400BD
:091557004007E51024F8F87603C2
:0C156000A81008741F26FDE40836FE08E1
:0C156C0086078D828E838FF0E51024F836
:0C157800F8E612E836A81008740326FDFF
:0E158400E40836FE0886078D828E838FF012F3
:0C15920028C5A81008741126FDE40836D6
:0E159E00FE0886078D828E838FF01228C5A866
:0C15AC001008740326FDE40836FE0886D3
:0E15B8000774082DFDE43EFE8D828E838FF0B9
:0B15C600A81008E612E836A308E612A1
:0915D100E836A308E612E836A88A
:0C15DA001008741126FDE40836FE088697
:0C15E60007E51024F8F886027B0074046E
:0E15F200C39AFAE49BFB8D828E838FF0EA127F
:08160000E836A3EB12E836A85E
:0C1608001008741126FAE40836FB08866E
:0E1614000474082AFAE43BFB8A828B838CF074
:0B162200A81008E612E836A308E61244
:09162D00E836A308E612E8368550
:051636001081D010221C
:02163B007A0033
:03163D00BA0400EC
:0C164000501EEA75F00CA42400FBE434FA
:0C164C00E0FC7D008B828C838DF0C002DE
:081658001227F3D0020A80DD25
:0A16600090E03075F0001227F390BF
:09166A00E03C75F0001227F3903A
:09167300E04E75F0001227F3901F
:09167C00E05A75F0001227F3900A
:07168500E0487430F0A3748B
:0A168C00E0F0A37400F090E04B744E
:0A1696003CF0A374E0F0A37400F030
:0116A0002227
:0816A10090F0B8E0FA7001229C
:0D16A900120B7C90E05AE0FAE4BA00010454
:0C16B600FAC002120B95D002EA6001227B
:0E16C200C0E0C0A8C2AF90E05AE0FAE4BA005F
:0216D000010413
:0416D200FAB4010065
:0E16D600E433FA603190E06075F00012ED1E12
:0E16E400FAA312ED1EFBA312ED1EFC74082AE1
:0E16F200FAE43BFB8A828B838CF012ED1EFA29
:0C170000A312ED1EFBA312ED1EFC8006E0
:06170C007A007B007C0066
:0E17120074032AFDE43BFE8C078D828E838FCC
:0E172000F0C002C003C004122CD8D004D003C5
:0C172E00D00290F0B9E01490F0B9F090F7
:0E173A00F0B8E01490F0B8F0D0E053E080E595
:0E174800E042A8D0E08A828B838CF002183C2D
:0A175600C010858110C082C0830519
:0E176000810581058190002E1233DCAC82AD34
:0C176E0083AEF0A810080808A60408A626
:0C177A000508A606A810080808B6000B19
:0B17860008B6000708B600030218298F
:0C179100A810080808742026FFE40836A1
:0C179D00FA088603A810088682088683DC
:0E17A900C002C003C0071233DCAC82AD83AEB9
:0E17B700F0D007D003D0028F828A838BF0EC33
:0B17C50012E836A3ED12E836A3EE1286
:0C17D000E836BC0023BD0020BE001DA8B0
:0C17DC001008080886820886830886F042
:0C17E800123485A810080808E4F608F682
:0417F40008F6803142
:0E17F8008F828A838BF012ED1EFFA312ED1E6E
:0C180600FAA312ED1EFBA81008E6C0E0DB
:0E18120008E6C0E074A5C0E08F828A838BF0E8
:0918200012EBE41581158115811C
:0C182900A810080808868208868308863C
:07183500F0851081D01022A4
:0E183C00AA82AB83ACF074202AFDE43BFE8C44
:0D184A00078D828E838FF012ED1EFDA3121C
:0E185700ED1EFEA312ED1EFF8D828E838FF01C
:0E186500C002C003C004123485D004D003D0EA
:0A187300028A828B838CF002348518
:05EF480049444C4500A6
:03F04300000000CA
:01F0460000C9
:01F0470000C8
:02F048000000C6
:01F04A0000C5
:01F04B0000C4
:01F04C0000C3
:01F04D0000C2
:01F04E0000C1
:01F04F0000C0
:01F0500000BF
:0A187D00C010858110C082E58124AF
:0C18870009F581A81008E67003021AD2CF
:0D1893009000291233DCAB82AC83ADF0A8CD
:0C18A000100808A60308A60408A605A866
:0C18AC00100808B6000B08B6000708B6CC
:0518B8000003021AD23A
:0A18BD00A81008A91019191986F0E7
:0E18C700E7A4FEAFF074012EFAE43FFB8A8224
:0E18D5008B83C006C0071233DCAA82AB83AC43
:0C18E300F0D007D006A810080886820884
:0E18EF0086830886F0EA12E836A3EB12E8368C
:0E18FD00A3EC12E836BA0009BB0006BC0003DB
:03190B00021AC3FA
:0A190E00A8100808E5102405F9747C
:0D1918000326F7E4083609F70809E6F7A8EA
:0C19250010080886820886830886F012ED
:0A193100ED1EFDA312ED1EFAA31235
:0C193B00ED1EFBEE2DFEEF3AFF8B04E5E5
:0C194700102405F886820886830886F0CC
:0C195300EE12E836A3EF12E836A3EC1207
:0C195F00E836A8100808742426FCE408F0
:0D196B0036FE0886078C828E838FF0E41212
:0C197800E836A8100808740626FCE408F5
:0D19840036FE0886078C828E838FF0ED12F0
:0A199100E836A3EA12E836A3EB12D1
:07199B00E836A8100808E57A
:0C19A200102405F9740926F7E408360942
:0C19AE00F70809E6F7A8100886047E0080
:0C19BA00E5102408F8EC24FFF6EE34FFE2
:0C19C60008F6A81018181886077C00C04E
:0C19D20002C003C005C007C004E51024DB
:0E19DE0008F8868208868312E9E9AC82AE839F
:0E19EC0015811581D005D003D002EC2DFDEE43
:0C19FA003AFAE5102405F886820886837E
:0E1A06000886F0ED12E836A3EA12E836A3EBEC
:0C1A140012E836A8100808742526FAE431
:0D1A20000836FB0886048A828B838CF0A8B0
:071A2D001008E612E836A8DC
:0C1A3400100808742626FAE40836FB08A7
:0C1A400086048A828B838CF0A810181892
:0C1A4C0018E612E836A8100808742726D7
:0E1A5800FAE40836FB0886048A828B838CF041
:0C1A660074FF12E836A810080874282647
:0E1A7200FAE40836FB0886048A828B838CF027
:0C1A800074FF12E836A8100808740C2649
:0E1A8C00FAE40836FB0886048A828B838CF00D
:0C1A9A001227F3A8100808741826FAE4BC
:0D1AA6000836FB0886048A828B838CF012C0
:0C1AB30027F3A810080886820886830824
:041ABF0086F0801518
:0C1AC300A810080886820886830886F0B8
:031ACF0012348549
:061AD20090000075F00019
:061AD800851081D01022F0
:0A1ADE00C010858110C082C083C0D3
:0C1AE800F0E5812414F581120B7CE51060
:0E1AF4002404FD7E007F408D828E838FF012D1
:0C1B02001392C0E0C0A8C2AFA810087485
:0E1B0E002726FDE40836FE0886078D828E83AA
:0E1B1C008FF012ED1E04FA8D828E838FF01270
:0C1B2A00E836A81008742826FAE40836F3
:0E1B3600FB0886048A828B838CF012ED1E045D
:0E1B4400FD8A828B838CF012E836D0E053E0ED
:0B1B520080E5E042A8D0E0A81008E504
:0C1B5D0010240AF9742626F7E408360963
:0A1B6900F70809E6F7A81008E510D8
:0E1B7300240DF9740326F7E4083609F7080973
:0A1B8100E6F7A81008E5102407F9A4
:0D1B8B00742526F7E4083609F70809E6F787
:0C1B9800A8100886820886830886F012D8
:091BA40027ABE5827003021C620C
:0B1BAD00E51024F9F8E608467003027A
:021BB8001C62AD
:0C1BBA00A81008740C26FDE40836FE0894
:0C1BC6008607E51024F9F8E6C0E008E608
:0E1BD200C0E08D828E838FF012112D158115CB
:0C1BE00081C0E0C0A8C2AFA81008868237
:0E1BEC000886830886F0122671120B95E5829A
:051BFA007003123138F8
:0C1BFF00120B7CC0E0C0A8C2AFA8100808
:0E1C0B00742726FDE40836FE0886078D828EBB
:0E1C1900838FF012ED1E04FA8D828E838FF001
:0C1C270012E836A81008742826FAE40819
:0E1C330036FB0886048A828B838CF012ED1E2D
:0E1C410004FD8A828B838CF012E836D0E053CB
:0E1C4F00E080E5E042A8D0E0D0E053E080E580
:051C5D00E042A8D0E008
:0C1C6200C0E0C0A8C2AFA810087424267F
:0E1C6E00FAE40836FB0886048A828B838CF029
:0C1C7C0012ED1EFDE5102407F88682081A
:0E1C880086830886F012ED1EFEC3ED9E40031B
:031C9600021E012A
:0C1C9900E510240AF8868208868308867D
:0C1CA500F012ED1EFDE5102413F8A6055A
:0A1CB100087600A81008E5102410C2
:0E1CBB00F9740626F7E4083609F70809E6F77B
:0C1CC900E5102410F88682088683088647
:0C1CD500F012ED1EFFA312ED1EFDA31285
:0C1CE100ED1EFEC002C003C004E510248C
:0C1CED0013F8E6C0E008E6C0E0E51024B3
:0E1CF900FBF8E6C0E008E6C0E008E6C0E08FB9
:0E1D0700828D838EF012EB46E58124FBF58180
:0D1D1500D004D003D0028A828B838CF012A0
:0E1D2200ED1E04FD8A828B838CF012E836E5FC
:0C1D3000102410F886820886830886F0D4
:0B1D3C0012ED1EFAA312ED1EFBA31215
:0C1D4700ED1EFCE510240AF886820886D8
:0E1D5300830886F012ED1EFD2AFAE43BFBE544
:0C1D6100102410F886820886830886F0A3
:0C1D6D00EA12E836A3EB12E836A3EC12F1
:0C1D7900E836E510240DF8868208868309
:0E1D85000886F012ED1EFDA312ED1EFEA31245
:0E1D9300ED1EFFC3EA9DEB9EEC64808FF063B3
:0C1DA100F08095F04034A81008868208FD
:0E1DAD0086830886F012ED1EFAA312ED1EFBCF
:0C1DBB00A312ED1EFCE5102410F8868237
:0D1DC7000886830886F0EA12E836A3EB12C6
:071DD400E836A3EC12E8362B
:0C1DDB007A01A81008742826FBE40836E2
:0E1DE700FC0886058B828C838DF012ED1E04A5
:0C1DF500FE8B828C838DF012E836800299
:021E01007A0065
:0E1E0300D0E053E080E5E042A8D0E0EA703C79
:0C1E1100E51024F9F8E608466032C00233
:0A1E1D00E51024F9FB7C007D40E590
:0C1E2700102404FE7F007A40C003C004B9
:0E1E3300C0058E828F838AF01213C2AA821518
:0C1E41008115811581EAD00270027AFF41
:061E4D00BAFF03021B981E
:0C1E5300A8100886820886830886F0C06C
:0E1E5F0002122671D002C002120B95D0028A28
:071E6D0082851081D01022D4
:0A1E7400C010858110C082C083C039
:0C1E7E00F0E581240CF581A81008742404
:0E1E8A0026FDE40836FE0886078D828E838FC3
:0B1E9800F0E5102404F812ED1EF6A87F
:0C1EA3001008742526FBE40836FC0886B5
:0C1EAF00028B828C838AF012ED1EFBE592
:0C1EBB00102404F8C3E69B400302209DA5
:0A1EC700A81008E5102405F97426A0
:0C1ED10026F7E4083609F70809E6F7E5F3
:0C1EDD00102405F886820886830886F031
:0C1EE90012ED1EFAE510240BF8A602080A
:0A1EF5007600A81008E5102408F993
:0E1EFF00740626F7E4083609F70809E6F7E549
:0C1F0D00102408F886820886830886F0FD
:0B1F190012ED1EFCA312ED1EFAA31235
:0C1F2400ED1EFBC005C006C007E5102440
:0C1F30000BF8E6C0E008E6C0E0E5102475
:0E1F3C00FBF8E6C0E008E6C0E008E6C0E08C76
:0E1F4A00828A838BF012EB46E58124FBF58141
:0D1F5800D007D006D0058D828E838FF01249
:0E1F6500ED1E04FA8D828E838FF012E836E5B1
:0C1F7300102408F886820886830886F097
:0B1F7F0012ED1EFAA312ED1EFBA312D0
:0C1F8A00ED1EFCE5102405F88682088698
:0E1F9600830886F012ED1EFD2AFAE43BFBE5FF
:0C1FA400102408F886820886830886F066
:0C1FB000EA12E836A3EB12E836A3EC12AC
:0C1FBC00E836A81008740326FDE408367F
:0E1FC800FE0886078D828E838FF012ED1EFDBF
:0E1FD600A312ED1EFEA312ED1EFFC3EA9DEB4B
:0E1FE4009EEC64808FF063F08095F04034A88E
:0B1FF200100886820886830886F01223
:0A1FFD00ED1EFAA312ED1EFBA31265
:0C200700ED1EFCE5102408F88682088617
:0E201300830886F0EA12E836A3EB12E836A343
:04202100EC12E8369F
:0C202500A81008742826FAE40836FB080E
:0E20310086048A828B838CF012ED1EFDBDFFAB
:0A203F0052E51024FAF8E67055A8E7
:0C2049001008741826FAE40836FB08861C
:0D205500048A828B838CF012ED1E603CA883
:0A2062001008E5102408F974182690
:0C206C00F7E4083609F70809E6F7E5106C
:0E2078002408F886820886830886F012122754
:07208600AE82BE00028010D3
:05208D007582018012C4
:0B2092000D8A828B838CF0ED12E83683
:07209D00E51024FAF8868229
:0620A400851081D010221E
:0A20AA00C010858110C082C083C001
:0C20B400F0E581240FF581120B7CE51093
:0E20C0002404FD7E007F408D828E838FF012FF
:0C20CE001392C0E0C0A8C2AFA8100874B4
:0E20DA002726FDE40836FE0886078D828E83D9
:0E20E8008FF012ED1E04FA8D828E838FF0129F
:0C20F600E836A81008742826FAE4083622
:0E210200FB0886048A828B838CF012ED1E048B
:0E211000FD8A828B838CF012E836D0E053E01B
:0B211E0080E5E042A8D0E0A81008E532
:0C212900102407F9742626F7E408360994
:0A213500F70809E6F7A81008E51006
:0E213F00240DF9740326F7E4083609F70809A1
:02214D00E6F7B3
:0C214F00A8100886820886830886F0121B
:09215B00277AE5827003022219C3
:0B216400E51024F9F8E60846700302BD
:02216F00221933
:0C217100A81008741826FDE40836FE08CB
:0C217D008607E51024F9F8E6C0E008E64B
:0E218900C0E08D828E838FF012112D1581150E
:0C21970081C0E0C0A8C2AFA8100886827A
:0E21A3000886830886F0122671120B95E582DD
:0521B10070031231383B
:0C21B600120B7CC0E0C0A8C2AFA810084B
:0E21C200742726FDE40836FE0886078D828EFF
:0E21D000838FF012ED1E04FA8D828E838FF045
:0C21DE0012E836A81008742826FAE4085D
:0E21EA0036FB0886048A828B838CF012ED1E71
:0E21F80004FD8A828B838CF012E836D0E0530F
:0E220600E080E5E042A8D0E0D0E053E080E5C3
:05221400E042A8D0E04B
:0C221900C0E0C0A8C2AFA81008742426C2
:0E222500FAE40836FB0886048A828B838CF06C
:0822330012ED1E70030223915D
:0A223B00C002C003C004A81008E5AB
:0C22450010240AF9740926F7E408360991
:0C225100F70809E6F7E510240AF8868279
:0E225D000886830886F012ED1EFAA312ED1E0D
:0C226B00FBA312ED1EFCE5102407F88612
:0E227700820886830886F012ED1EFD2AFAE426
:0C2285003BFBE510240AF88682088683E3
:0E2291000886F0EA12E836A3EB12E836A3EC5A
:0C229F0012E836E510240DF8868208864F
:0E22AB00830886F012ED1EFDA312ED1EFEA3A9
:0E22B90012ED1EFFC3EA9DEB9EEC64808FF0D9
:0E22C70063F08095F0D004D003D0024034A81C
:0B22D500100886820886830886F0123D
:0A22E000ED1EFDA312ED1EFEA31279
:0C22EA00ED1EFFE510240AF8868208862D
:0E22F600830886F0ED12E836A3EE12E836A358
:04230400EF12E836B6
:0E2308008A828B838CF012ED1EFD1D8A828B63
:0C231600838CF0ED12E836E5102407F887
:0E23220086820886830886F012ED1EFA7B0084
:0C233000E510240AF886820886830886DF
:0C233C00F012ED1EFCA312ED1EFDA3121A
:0E234800ED1EFEC002C003C004C005C006E5C5
:0C2356001024FBF886820886830886F0BD
:0C23620012EB46E58124FBF581A8100871
:0E236E00742726FAE40836FB0886048A828B60
:0E237C00838CF012ED1E04FD8A828B838CF0A0
:07238A0012E8367A0180021F
:022391007A00D0
:0E239300D0E053E080E5E042A8D0E0EA703CE4
:0C23A100E51024F9F8E608466032C0029E
:0A23AD00E51024F9FB7C007D40E5FB
:0C23B700102404FE7F007A40C003C00424
:0E23C300C0058E828F838AF01213C2AA821583
:0C23D1008115811581EAD00270027AFFAC
:0623DD00BAFF0302214FCC
:0C23E300A8100886820886830886F0C0D7
:0E23EF0002122671D002C002120B95D0028A93
:0723FD0082851081D010223F
:0A240400C010858110C082C083C0A3
:0C240E00F0E5812408F581A81008742472
:0E241A0026FDE40836FE0886078D828E838F2D
:0B242800F0E5102404F812ED1EF6E5AC
:0A243300102404F8E6700302260AE4
:0A243D00C005C006C007A81008E59E
:0C244700102405F9740926F7E408360992
:0C245300F70809E6F7E5102405F886827A
:0E245F000886830886F012ED1EFDA312ED1E06
:0C246D00FEA312ED1EFFA8100874262626
:0E247900FAE40836FB0886048A828B838CF016
:0A248700E5102408F812ED1EF6E53A
:0B249100102408F8E62DFDE43EFEE5F7
:0C249C00102405F886820886830886F06C
:0C24A800ED12E836A3EE12E836A3EF12A6
:0C24B400E836A81008740326FAE4083685
:0E24C000FB0886048A828B838CF012ED1EFAD4
:0E24CE00A312ED1EFBA312ED1EFCC3ED9AEE51
:0E24DC009BEF64808CF063F08095F0D007D009
:0C24EA0006D0054034A810088682088641
:0E24F600830886F012ED1EFAA312ED1EFBA362
:0C25040012ED1EFCE5102405F88682088C
:0E25100086830886F0EA12E836A3EB12E8365E
:05251E00A3EC12E836F9
:0C252300E5102404F8E614FA8D828E8383
:0C252F008FF012E836E5102408F8860250
:0C253B007B00E5102405F88682088683EA
:0E2547000886F012ED1EFCA312ED1EFDA3127D
:0E255500ED1EFEC002C003C004C005C006E5B6
:0C2563001024FBF886820886830886F0AE
:0C256F0012EB46E58124FBF581A8100862
:0E257B00742726FAE40836FB0886048A828B51
:0C258900838CF012ED1EFDBDFF68E51014
:0E25950024F8F886020886030886048A828BE2
:0C25A300838CF012ED1E705BA810087411
:0E25AF000C26FDE40836FE0886078D828E831A
:0C25BD008FF012ED1E6042A81008740C94
:0E25C90026FDE40836FE0886078D828E838F7D
:0E25D700F0C002C003C004121227AE82D0046E
:0925E500D003D002BE00028018F0
:0D25EE008A828B838CF0740112E836800B1A
:0B25FB000D8A828B838CF0ED12E83615
:042606007A018002D3
:02260A007A0054
:08260C008A82851081D01022A2
:0E261400AA82AB83ACF0C0E0C0A8C2AF7424B1
:0E2622002AFAE43BFB8A828B838CF012ED1EB9
:0E263000FAD0E053E080E5E042A8D0E08A82D4
:01263E002279
:0E263F00AA82AB83ACF012ED1EFDA312ED1EBD
:0E264D00FEA312ED1EFF8D828E838FF0C00261
:0E265B00C003C004123485D004D003D0028A1C
:08266900828B838CF0023485A2
:0E267100AA82AB83ACF0C0E0C0A8C2AF742850
:0E267F002AFDE43BFE8C078D828E838FF012C5
:0E268D00ED1EF8188D828E838FF0E812E8366D
:0E269B00C3747F88F063F08095F050538D82F9
:0E26A9008E838FF074FF12E83674182AFDE459
:0E26B7003BFE8C078D828E838FF012ED1E602D
:0E26C5003474182AFDE43BFE8C078D828E8350
:0E26D3008FF0C002C003C004121227AD82D0E7
:0A26E10004D003D002BD0002800FF8
:0E26EB00C002C003C0041214C2D004D003D039
:0126F90002DE
:0E26FA00D0E053E080E5E042A8D0E0C0E0C0B0
:0E270800A8C2AF74272AFDE43BFE8C078D8229
:0E2716008E838FF012ED1EF8188D828E838F49
:0E272400F0E812E836C3747F88F063F0809509
:0E273200F050398D828E838FF074FF12E836DE
:0E274000740C2AFDE43BFE8C078D828E838F85
:0E274E00F012ED1E601A740C2AFAE43BFB8AAE
:0E275C00828B838CF0121227AA82BA000280B0
:01276A00036B
:03276B001214C283
:0C276E00D0E053E080E5E042A8D0E0227B
:0E277A00AA82AB83ACF0C0E0C0A8C2AF74244A
:0E2788002AFAE43BFB8A828B838CF012ED1E52
:06279600FAE4BA000104A0
:0E279C00FAD0E053E080E5E042A8D0E08A8267
:0127AA00220C
:0E27AB00AA82AB83ACF0C0E0C0A8C2AF742419
:0E27B9002AFDE43BFE8C078D828E838FF0128A
:0E27C700ED1EFD74252AFAE43BFB8A828B830B
:0E27D5008CF012ED1EFAEDB5020474018001C5
:0127E300E411
:0E27E400FDD0E053E080E5E042A8D0E08D8219
:0127F20022C4
:0A27F300C010858110C082C083C0B1
:0C27FD00F0058105810581A81008740119
:0C28090026FDE40836FE088607A810082B
:0C281500E5102404F9740426F7E40836EA
:0D28210009F70809E6F78D828E838FF0E538
:0C282E00102404F8E612E836A308E612B5
:09283A00E836A308E612E836E5D1
:0C284300102404F886820886830886F0C2
:0C284F0074FF12E836A374FF12E836E5AF
:0C285B00102404F8740226FBE40836FC8C
:0C2867000886058B828C838DF0E5102420
:0E28730004F8E612E836A308E612E836A308D9
:0C288100E612E836E5102404F874052681
:0E288D00FBE40836FC0886058B828C838DF0F8
:0C289B00E5102404F8E612E836A308E675
:0A28A70012E836A308E612E836A88E
:0C28B100100886820886830886F0E41276
:0628BD00E836851081D011
:0228C3001022E1
:0E28C500AA82AB83ACF0740B2AFAE43BFB8AC8
:0E28D300828B838CF0E412E836A3E412E83620
:0528E100A3E402E8364B
:0A28E600C010858110C082C083C0BD
:0B28F000F0E581240CF581A81008E53C
:0C28FB00102407F9740126F7E4083609E0
:0C290700F70809E6F7E5102407F88682BF
:0E2913000886830886F012ED1EFAA312ED1E50
:0C292100FBA312ED1EFCE5102404F8A638
:0C292D000208A60308A604E51024FBF82D
:0C2939008602088603088604E510240AC4
:0D294500F874022AF6E43B08F608A604E543
:0C295200102404F8860508860608860795
:0E295E0074022DFDE43EFE8D828E838FF012FA
:0A296C00ED1EFDA312ED1EFEA312E6
:0C297600ED1EFFE510240AF8868208869A
:0E298200830886F0ED12E836A3EE12E836A3C5
:0C299000EF12E836E510240AF874052A5E
:0C299C00F6E43B08F608A604E51024074A
:0E29A800F886820886830886F012ED1EFDA3D5
:0A29B60012ED1EFEA312ED1EFFE558
:0C29C00010240AF886820886830886F03E
:0C29CC00ED12E836A3EE12E836A3EF127D
:0C29D800E836E5102404F88605088606A1
:0E29E40008860774022DFDE43EFE8D828E8370
:0D29F2008FF012ED1EFDA312ED1EFEA312CC
:0E29FF00ED1EFF74052DFDE43EFE8D828E83DD
:0E2A0D008FF0EA12E836A3EB12E836A3EC12C3
:0C2A1B00E836E5102404F886050886065D
:0E2A270008860774022DFDE43EFE8D828E832C
:0E2A35008FF0EA12E836A3EB12E836A3EC129B
:0C2A4300E836E5102407F8868208868338
:0E2A4F000886F0EA12E836A3EB12E836A3EC94
:0E2A5D0012E836740B2AFAE43BFB8A828B8364
:0C2A6B008CF0A81008E612E836A308E67C
:0A2A770012E836A308E612E836A8BC
:0B2A8100100886820886830886F01289
:0C2A8C00ED1E04FAA8100886820886835C
:0B2A98000886F0EA12E836851081D0B5
:022AA3001022FF
:0A2AA500C010858110C082C083C0FC
:0C2AAF00F0E581240BF581E51024FBF814
:0E2ABB0086050886060886078D828E838FF0BA
:0A2AC90012ED1EFAA312ED1EFBE54C
:0A2AD300102407F8A60208A603E588
:0C2ADD00102407F8B6FF4908B6FF45C0FA
:0C2AE90005C006C007A81008740426FDF4
:0E2AF500E40836FE08860774052DFDE43EFE5B
:0E2B03008D828E838FF012ED1EFDA312ED1E4B
:0C2B1100FEA312ED1EFFE5102404F8A640
:0E2B1D000508A60608A607D007D006D00502B8
:022B2B002BBEBF
:0A2B2D00A81008E5102404F9740450
:0B2B370026F7E4083609F70809E6F766
:0C2B4200E5102404F886020886030886CB
:0E2B4E000474022AFAE43BFB8A828B838CF02B
:0B2B5C0012ED1EFAA312ED1EFBA312E7
:0E2B6700ED1EFC8A828B838CF012ED1EFAA309
:0C2B750012ED1EFBE5102407F8C3E69AE1
:0C2B810008E69B4038E5102404F88602AA
:0E2B8D0008860308860474022AFAE43BFB8AD9
:0E2B9B00828B838CF012ED1EFAA312ED1EFB4E
:0C2BA900A312ED1EFCE5102404F8A602A7
:092BB50008A60308A604022B4245
:0C2BBE00E5102409F874022DF6E43E082E
:0C2BCA00F608A607E5102404F8860208AF
:0E2BD600860308860474022AFAE43BFB8A8216
:0E2BE4008B838CF012ED1EFAA312ED1EFBA3E4
:0C2BF20012ED1EFCE5102409F886820894
:0E2BFE0086830886F0EA12E836A3EB12E8366A
:0C2C0C00A3EC12E836E5102409F88682DB
:0E2C18000886830886F012ED1EFAA312ED1E48
:0E2C2600FBA312ED1EFC74052AFAE43BFB8AA8
:0E2C3400828B838CF0ED12E836A3EE12E836A8
:0E2C4200A3EF12E83674052DFAE43EFB8F0472
:0C2C50008A828B838CF0E5102404F8E6E7
:0D2C5C0012E836A308E612E836A308E612D7
:0C2C6900E836E5102404F8860208860313
:0E2C750008860474022AFAE43BFB8A828B83F1
:0E2C83008CF0ED12E836A3EE12E836A3EF1245
:0E2C9100E836740B2DFDE43EFE8D828E838F9F
:0C2C9F00F0A81008E612E836A308E612C0
:092CAB00E836A308E612E836A899
:0B2CB400100886820886830886F01254
:0C2CBF00ED1E04FAA81008868208868327
:0B2CCB000886F0EA12E836851081D080
:022CD6001022CA
:0A2CD800C010858110C082C083C0C7
:0C2CE200F0E581240CF581A810087402B4
:0E2CEE0026FDE40836FE0886078D828E838F51
:0C2CFC00F012ED1EFAA312ED1EFBA31255
:0C2D0800ED1EFCE510240AF874052AF604
:0B2D1400E43B08F608A604A81008E540
:0C2D1F00102407F9740526F7E4083609B3
:0C2D2B00F70809E6F7E5102407F8868297
:0E2D37000886830886F012ED1EFAA312ED1E28
:0C2D4500FBA312ED1EFCE510240AF8862A
:0E2D5100820886830886F0EA12E836A3EB12A9
:082D5F00E836A3EC12E836E5AA
:0C2D6700102407F886820886830886F096
:0B2D730012ED1EFAA312ED1EFBA312CE
:0E2D7E00ED1EFC74022AFAE43BFB8D828E836C
:0D2D8C008FF012ED1EFDA312ED1EFEA3122E
:0E2D9900ED1EFF8A828B838CF0ED12E836A3CC
:0A2DA700EE12E836A3EF12E836A89A
:0C2DB1001008740B26FAE40836FB0886B4
:0D2DBD00048A828B838CF012ED1EFDA312A0
:092DCA00ED1EFEA312ED1EFFE553
:0C2DD300102404F8A60508A60608A607B0
:0A2DDF00E5102404F8E510240AF9B9
:0E2DE900740126F7E4083609F70809E6F7E555
:0C2DF70010240AF886820886830886F003
:0B2E030012ED1EFDA312ED1EFEA31237
:0C2E0E00ED1EFFA81008E6B5050C08E654
:0A2E1A00B5060708E6B507028002BE
:022E24008036F6
:0C2E2600E5102407F886820886830886E1
:0C2E3200F012ED1EFDA312ED1EFEA31217
:0C2E3E00ED1EFFE510240AF886820886CD
:0E2E4A00830886F0ED12E836A3EE12E836A3F8
:042E5800EF12E83657
:0D2E5C008A828B838CF0E412E836A3E41226
:082E6900E836A3E412E836E5A7
:0C2E7100102404F886820886830886F08E
:0C2E7D0012ED1EFA1AE5102404F88682FB
:0C2E89000886830886F0EA12E8368510FF
:042E950081D01022B6
:0A2E9900C010858110C082C083C004
:0B2EA300F0058105810581A81008E5FD
:0C2EAE00102404F9E6F70809E6F708090B
:0C2EBA00E6F7A81008740126F6E40836BC
:0C2EC600F6E51024FCF886050886067F5F
:0C2ED200007A008D03A810088682088694
:0E2EDE00830886F0EB12E836A31818A68208C7
:0D2EEC00A6838E058F068A077A008D03A845
:0C2EF900100886820886830886F0EB1221
:0C2F0500E836A31818A68208A683A810BE
:0E2F11000886820886830886F074AA12E836C5
:0C2F1F00A31818A68208A683A810088634
:0E2F2B00820886830886F0748012E836A318A8
:0C2F390018A68208A683E51024F9F8868B
:0C2F4500050886060886077A008D03A8A0
:0C2F5100100886820886830886F0EB12C8
:0E2F5D00E836A31818A68208A6838E058F06F4
:0C2F6B008A077A008D03A81008868208EF
:0E2F770086830886F0EB12E836A31818A682AF
:0C2F850008A6838E058F068A077A00A834
:0C2F9100100886820886830886F0ED1286
:0C2F9D00E836A31818A68208A683A81026
:0E2FA9000886820886830886F0740212E836D5
:0C2FB700A31818A68208A683A81008869C
:0E2FC300820886830886F0740312E836A3188D
:0C2FD10018A68208A683A81008868208B3
:0E2FDD0086830886F0740412E836A31818A63E
:0C2FEB008208A683A8100886820886834E
:0E2FF7000886F0740512E836A31818A68208A2
:0C300500A683A81008868208868308862F
:0E301100F0740612E836A31818A68208A683EB
:0C301F00A8100886820886830886F074DA
:0D302B000712E836A31818A68208A683A88D
:0C303800100886820886830886F0E412E7
:0C304400E836A31818A68208A683A8107E
:0E3050000886820886830886F0740112E8362E
:0C305E00A31818A68208A683A8100886F4
:0E306A00820886830886F0E412E836A3181860
:0C307800A68208A683A81008868208869D
:0C308400830886F074BB12E836A8100820
:0C309000E5102404F9E6C397FA08E609ED
:0C309C0097FBE5102404F8868208868368
:0C30A8000886F0EA12E836E5102404F86F
:0C30B40086820886830886F0851081D093
:0230C0001022DC
:0E30C20012336A90F0B5E0FAA3E0FBA3E0FC45
:0C30D0008A828B838CF012ED1EF50DA39C
:0630DC0012ED1EF50E7559
:0630E2000F21850D82851F
:0530E8000E83E0F50875
:0730ED00050DE4B50D02051D
:0130F4000ECD
:0530F500050FA80F8586
:0930FA000D82850E83E0FAF61543
:0631030008E50870E585F7
:0A3109000F81D010D0D0D001D0000B
:0E311300D007D006D005D004D003D002D0F0F3
:0E312100D083D082D0E020E705C2AF0231316A
:02312F00D2AF1D
:06313100D0E075820122CE
:013137002275
:0E313800C0E0C0A8C2AFC082C083C0F0C00219
:0E314600C003C004C005C006C007C000C00121
:0C315400C0D075D000C01090F0B5E0FABB
:0D316000A3E0FBA3E0FC8A828B838CF012BD
:06316D00ED1EF50DA3129A
:05317300ED1EF50E75D4
:093178000F22E58124DFF5088532
:063181000D82850E83F0B3
:08318700E508601A050DE4B52E
:04318F000D02050E1A
:07319300850D82850E83A863
:08319A000F8602EAF0050F1593
:0331A2000880E2C0
:0E31A500120FC590F0B5E0FAA3E0FBA3E0FC2A
:0C31B3008A828B838CF012ED1EF50DA3B8
:0631BF0012ED1EF50E7575
:0631C5000F21850D82853B
:0531CB000E83E0F50891
:0731D000050DE4B50D020539
:0131D7000EE9
:0531D800050FA80F85A2
:0931DD000D82850E83E0FAF6155F
:0631E60008E50870E58514
:0A31EC000F81D010D0D0D001D00028
:0E31F600D007D006D005D004D003D002D0F010
:0E320400D083D082D0E020E705C2AF023214A2
:02321200D2AF39
:02321400D0E008
:0E321600C2AFC0E0C0A8C2AFC082C083C0F08B
:0E322400C002C003C004C005C006C007C00041
:0C323200C001C0D075D000C01090F0B5F5
:0E323E00E0FAA3E0FBA3E0FC8A828B838CF015
:07324C0012ED1EF50DA312A7
:05325300ED1EF50E75F3
:093258000F22E58124DFF5088551
:063261000D82850E83F0D2
:08326700E508601A050DE4B54D
:04326F000D02050E39
:07327300850D82850E83A882
:08327A000F8602EAF0050F15B2
:033282000880E2DF
:07328500859509750A00752B
:0A328C000B00750C00AA967B007C75
:0C329600008C058B048A03E4FA2509F57E
:0532A20009EB350AF5FF
:0532A7000AEC350BF5F7
:0532AC000BED350CF5EF
:0C32B1000CAA977B007C008B058A04E4CB
:0832BD00FBFA2509F509EB35C8
:0532C5000AF50AEC35DA
:0532CA000BF50BED35D2
:0632CF000CF50C74202533
:0532D50009F509E435D4
:0532DA000AF50AE435CD
:0532DF000BF50BE435C6
:0432E4000CF50C8554
:0632E8000B97850A968594
:0632EE000995120DBA1251
:0E32F4000FC553C07F90F0B5E0FAA3E0FBA336
:0C330200E0FC8A828B838CF012ED1EF53B
:06330E000DA312ED1EF5F7
:053314000E750F21857C
:073319000D82850E83E0F533
:0133200008A4
:07332100050DE4B50D0205E6
:013328000E96
:05332900050FA80F854F
:09332E000D82850E83E0FAF6150C
:0633370008E50870E585C1
:0A333D000F81D010D0D0D001D000D5
:0E334700D007D006D005D004D003D002D0F0BD
:0E335500D083D082D0E020E705C2AF023365FE
:02336300D2AFE7
:05336500D0E0D2AF3200
:0A336A0075C6B8859509750A00754F
:0A3374000B00750C00AA967B007C8C
:0C337E00008C058B048A03E4FA2509F595
:05338A0009EB350AF516
:05338F000AEC350BF50E
:053394000BED350CF506
:0C3399000CAA977B007C008B058A04E4E2
:0833A500FBFA2509F509EB35DF
:0533AD000AF50AEC35F1
:0533B2000BF50BED35E9
:0633B7000CF50C7420254A
:0533BD0009F509E435EB
:0533C2000AF50AE435E4
:0533C7000BF50BE435DD
:0433CC000CF50C856B
:0633D0000B97850A9685AB
:0633D600099543A8202226
:0A33DC00C010858110C082C0830577
:0E33E6008105817C007D007E00C004C005C012
:0E33F40006120B7CD006D005D00490F0C3A8C2
:0B34020010080808E0F6A3E008F6A898
:0A340D0010080808A91009E726FFBF
:0E34170009E70836FAC3EF94ACEA940D50456D
:0A342500A810080808A91009E726FE
:0C342F00FA09E70836FBA810080808C3DB
:0C343B00E69A08E69B5028A81008080834
:0A344700E6246BFA08E634E0FB8A85
:0B345100048B057E00A810080808A9E5
:0C345C00100990F0C3E726F009E70836DD
:02346800A3F0CF
:0E346A00C004C005C006120B95D006D005D0D8
:0B347800048C828D838EF0851081D0C3
:02348300102215
:013485002224
:0834860090F0C3E4F0A3F02272
:02F051000000BD
:04348E0043FDC02218
:03349200D28622BD
:03349500C28622CA
:03349800D28722B6
:03349B00C28722C3
:0D349E0012348E43C68053C6BE75820122D3
:0A34AB00C010858110AA82AB83AC2B
:0E34B500F0C2AF8A828B83E8C0E0EAC0E0E597
:0C34C3001024F9F8E6FA08E6F58408E6A3
:0E34CF004480F58508E61813E6130303543015
:0434DD004401F5C7EA
:0E34E100759201E493A3759200F0A3DAF375DF
:0E34EF00C711D0E0FAD0E0F8D2AF8A828B830A
:0A34FD008CF012ED1EF584D01022B1
:08350700AA82AB837C007D0069
:0E350F00C3EC9AED9B5008000CBC00F40D803C
:01351D00F1BC
:01351E00228A
:08351F00AA82AB837C007D0051
:0E352700C3EC9AED9B501D9003E8C002C00358
:0E353500C004C005123507D005D004D003D065
:08354300020CBC00DF0D80DC6E
:01354B00225D
:0E354C00AA82AB83ACF012ED1EFDBD01028021
:01355A002B45
:05355B00BD0202800327
:03356000BD032385
:0C356300740DC0E0E4C0E074C5C0E0746A
:0C356F00F0C0E0E4C0E08A828B838CF0A6
:0B357B0012EB46E58124FBF581802166
:0C358600740DC0E0E4C0E074D2C0E0743A
:0C359200F0C0E0E4C0E08A828B838CF083
:09359E0012EB46E58124FBF581E6
:0435A7007582012206
:0E35AB00AA82AB83ACF012ED1EFDBD010280C2
:0135B90034DD
:0535BA00BD02028003C8
:0335BF00BD032C1D
:0E35C200740DC0E0E4C0E0C002C003C004907D
:0E35D000F0C575F00012EB46E58124FBF58195
:0E35DE007406C0E090F0C675F0001295F2156C
:0235EC0081223A
:0E35EE00740DC0E0E4C0E0C002C003C0049051
:0E35FC00F0D275F00012EB46E58124FBF5815C
:0E360A007401C0E090F0D375F0001295F21537
:07361800817582000293F6A8
:0DF0530000000000000000000000000000B0
:0DF0600000000000000000000000000000A3
:0A361F00AA82AB83ACF0FD023AC5AD
:0A362900AA82AB83ACF0FD023B3235
:05363300AA82023BDB4E
:08363800AA82AB837C007D0037
:0E3640008A828B83E493FE60278E82C002C0D4
:0E364E0003C004C005123633AE82D005D0048E
:0A365C00D003D002BEFF038C8222CF
:053666000ABA00010B8F
:05366B000D8D0480D06C
:033670008C822227
:0A367300C010858110058105810556
:0A367D00817A567BEE7C008A828B76
:0C368700838CF0E412E8361ABAFF011B35
:0A369300A810181818B610028003E2
:03369D00023732BF
:0C36A000E51024FBF8740F56FD7E00EDD1
:0A36AC00244DF582EE34EFF583E4BF
:0E36B60093FD8A828B838CF012E8361ABAFFDD
:0236C400011BE8
:0C36C600E51024FB04F8E618C4C6C45448
:0D36D2000F66C6540FC666C630E30244F012
:0C36DF0008F6E51024FBF8740F56FD7E81
:0A36EB0000ED244DF582EE34EFF5FA
:0E36F50083E493FD8A828B838CF012E8361AF0
:04370300BAFF011BED
:0C370700E51024FB04F8E618C4C6C45406
:0D3713000F66C6540FC666C630E30244F0D0
:0C37200008F6E51024FBF8E608466003FC
:03372C000236A0C2
:03372F0002380E4F
:0C3732007F00E51024FB04F8E630E70FF0
:0C373E007F01E51024FBF8C3E496F608B8
:03374A00E496F60C
:0B374D00A81008A60208A60308A604A6
:0C375800C007740AC0E0E4C0E0E51024E3
:0E376400FBF8868208868312ED3AAD82AE83B2
:0C37720015811581D00774302DFDA810C2
:0E377E000886820886830886F0ED12E836A8D9
:0C378C001008E624FFF608E634FFF6C043
:0C37980007740AC0E0E4C0E0E51024FB68
:0E37A400F8868208868312EE3DAD82AE831554
:0C37B200811581D007E51024FBF8A60566
:0C37BE0008A606E51024FBF8E60846709B
:0C37CA008DEF6021A8100886820886831D
:0C37D6000886F0742D12E836A81008E6F2
:0D37E20024FFFA08E634FFFB088604801F70
:0C37EF00A8100886820886830886F07403
:0C37FB002012E836A81008E624FFFA08A7
:07380700E634FFFB08860414
:05380E000ABA00010BE5
:0D3813008A828B838CF0C002C003C00412B7
:0E382000ED06AD82AE83D004D003D002C0020C
:0D382E00C003C004C0058A828B838CF01299
:0E383B0038511581D004D003D0028A828B83CD
:083849008CF0851081D01022E3
:0A385100C010858110C082C083C042
:05385B00F07D007E007D
:0C386000A810181818C3EE96503AC005C6
:0C386C00A81008EE26FFE40836FD0886D0
:0E387800028F828D838AF012ED1EFFF582C052
:0E38860005C006123633AA82D006D005E4BA79
:03389400FF01042D
:08389700D00560048D8280075A
:05389F000E8E0580BC47
:0238A4008D8213
:0638A600851081D0102204
:0A38AC00C01085811005810581051B
:0E38B60081AA82AB83ACF074012AFDE43BFED4
:0E38C4008C078A828B838CF012ED1EFABA01FB
:0438D2000302397341
:0638D600BA0203023A5998
:0638DC00BA03030239D615
:0538E200BA0402800998
:0638E700BA0803023AB921
:0338ED00023ABFDD
:0E38F00074082DFDE43EFE8D828E838FF01253
:0E38FE00ED1EFAA3AD82AE837B00C005C006AE
:0E390C00C007C002C0037410C0E07582021232
:0E391A003673158115811581D007D006D005B2
:0E3928008D828E838FF012ED1EFAA3AD82AE5B
:0E393600837B00C005C006C007C002C003743A
:0E39440010C0E07582021236731581158115D0
:0E39520081D007D006D00590EF5DC005C006FD
:0E396000C007123638D007D006D005ED24F689
:05396E00FDEE34FFFE38
:0C39730074082DFDE43EFEA81008A60517
:08397F0008A60608A6077A005D
:03398700BA08007B
:05398A004003023ABFFA
:0C398F00A81008E624FFF608E634FFF656
:0C399B00A8100886820886830886F012B7
:0E39A700ED1EFB7C00C002C003C0047410C003
:0E39B500E0758202123673158115811581D0DE
:0439C30002BA07003D
:0C39C700500A90EF5FC002123638D002A8
:0339D3000A80B1B6
:0E39D60074022DFDE43EFE8D828E838FF01272
:0E39E400ED1EFAA3AD82AE837B00C005C006C7
:0E39F200C007C002C0037410C0E0758202124C
:0E3A00003673158115811581D007D006D005CB
:0E3A0E008D828E838FF012ED1EFAA3AD82AE74
:0E3A1C00837B00C005C006C007C002C0037453
:0E3A2A0010C0E07582021236731581158115E9
:0E3A380081D007D006D00590EF5DC005C00616
:0E3A4600C007123638D007D006D005ED24FC9C
:053A5400FDEE34FFFE51
:0D3A590074022DFDE43EFE7A028E048F0300
:053A66001DBDFF011C65
:0E3A6B008D828C838BF012ED1EFE7F00C00258
:0E3A7900C003C004C005C006C0077410C0E042
:0E3A8700758202123673158115811581D005E6
:0E3A9500D004D003D002EA14701690EF5FC088
:0E3AA30002C003C004C005123638D005D0049E
:043AB100D003D0026C
:043AB500DAAF8006FE
:063AB90090EF61123638A7
:063ABF00851081D01022E9
:0EEF4D0030313233343536373839414243449F
:02EF5B00454629
:02EF5D00200092
:02EF5F003A0076
:0AEF610042726F6164636173740013
:0E3AC500AA82AB83ACF0FDBA0062BBC25FBC4C
:0E3AD300015CBD005990F0E0E0FAA3E0FBA317
:0E3AE100E0FCEA4B4C70267401C0E0758204D4
:0E3AEF0012187DAA82AB83ACF0158190F0E036
:0E3AFD00EAF0A3EBF0A3ECF090F0E3E4F0901D
:033B0B00F0E4F0F3
:0E3B0E0043F10243F4C043FE2043902075FAB9
:0E3B1C00D875FC0B75FB0275F8C2D2AB439A4C
:073B2A000890F0DF7401F0C8
:013B31002271
:0A3B3200C010858110C082C0830519
:0B3B3C0081E5102403FC7D007E40901A
:0C3B4700F0E0E0FFA3E0FAA3E0FBA81010
:0E3B530008E6C0E008E6C0E0C004C005C006F9
:0E3B61008F828A838BF01220AAAA82E581242B
:0C3B6F00FBF581BA010FA81008080886B9
:093B7B00027B008A828B83800327
:033B840090FFFFB0
:063B8700851081D0102220
:083B8D00C0108581100581AA1A
:0C3B9500100A7B007C4090F0E0E0FDA3F3
:0E3BA100E0FEA3E0FFE4C0E0C0E0C002C0030D
:0E3BAF00C0048D828E838FF01220AAAA82E5B8
:0C3BBD008124FBF581BA010DA8100886D8
:093BC900027B008A828B838003D9
:033BD20090FFFF62
:063BD500851081D01022D2
:0D3BDB00AA827B0090F0DFE0FCBC010990A5
:083BE800F0DFE4F08AF98058D7
:093BF00090F0E4E004FCBC80004C
:063BF9004004EC2480FCF6
:0D3BFF0090F0E3E0FDECB505047BFF803C99
:0A3C0C00EC2457F582E434EEF58352
:0E3C1600EAF0C2AF90F0E4ECF090F0DFE0FCDA
:0E3C2400BC011F90F0E374012DF090F0E3E07E
:043C3200FCBC800056
:093C36004007EC248090F0E3F05B
:073C3F0090F0DFE4F08AF9C8
:023C4600D2AFFB
:033C48008B82224A
:0E3C4B00C0E0C0F0C082C083C002C003C0044D
:0C3C5900C005C006C007C000C001C020AC
:0A3C6500C0D075D000C0108581109A
:0A3C6F000581C28FA81008A6F9AA6B
:0C3C7900100A7B007C4090F0E0E0FDA30E
:0E3C8500E0FEA3E0FFE4C0E0C002C003C00404
:0E3C93008D828E838FF0121E74AA82E581242A
:093CA100FCF581BA01031231386F
:083CAA00851081D010D0D0D0AC
:0C3CB20020D001D000D007D006D005D0F3
:0E3CBE0004D003D002D083D082D0F0D0E03208
:0E3CCC00C0E0C082C083C002C003C0D075D06B
:0E3CDA000090F0E3E0FA90F0E4E0FBEAB503BE
:033CE80002802730
:0C3CEB0090F0E374012AF0EA2457F582FF
:0C3CF700E434EEF583E0F5F990F0E3E032
:043D0300FABA800088
:0B3D0700400FEA248090F0E3F08006FB
:063D120090F0DF7401F0E7
:0D3D1800D0D0D003D002D083D082D0E032D2
:01F06D0001A1
:03F06E000000009F
:01F07100009E
:01F07200009D
:0E3D250090F0E5E0FABAFF3E90EF4FE4F0A315
:033D3300F07A081B
:0C3D3600EA14FB75F00FA4FC24D7F58202
:0C3D4200E434EEF583E4F0A3F0A3F0EC11
:0A3D4E0024D7FCE434EEFD74062CCB
:0E3D5800F582E43DF583E4F08B02EA70D19031
:053D6600F0E57401F01E
:013D6B002235
:0A3D6C00C010858110C082C083C022
:0E3D7600F00581058190F0E5E0FDBDFF031230
:023D84003D25DB
:043D86007D007E003E
:033D8A00BE080070
:0C3D8D00506EEE75F00FA4FFE51024044A
:0A3D9900F8EF24D7F6E434EE08F644
:0C3DA300E5102404F88682088683E0FA0C
:0C3DAF00A3E0FBA3E0FCEA4B4C703EE5F7
:0A3DBB00102404F88682088683A90C
:0C3DC5001009E7F0A309E7F0A309E7F0FC
:0A3DD100EF24D7FFE434EEFA740685
:0E3DDB002FF582E43AF583E4F08F828A83A309
:0C3DE900A3A3A3A3A810181818E6F08DDF
:033DF500828008C1
:053DF8000E8E05808D18
:033DFD007582FFCD
:063E0000851081D01022A4
:053E0600AA82BA0800C9
:0C3E0B005028EA75F00FA4FA24D7F582C5
:0C3E1700E434EEF583E4F0A3F0A3F0EA3D
:0A3E230024D7FAE434EEFB74062AFB
:083E2D00F582E43BF583E4F0AB
:013E3500226A
:0A3E3600C010858110AA82BA0800AE
:053E40004003023EE218
:0D3E4500C0E0C0A8C2AFEA75F00FA4FA24D7
:0A3E5200D7FBE434EEFC8B828C8376
:0E3E5C00A3A3A3A3A3E0FD7E0074072BFBE449
:0C3E6A003CFC7F00C002C005C006E51053
:0E3E760024FBF8E6C0E008E6C0E008E6C0E085
:0E3E84008B828C838FF012EB46E58124FBF5D8
:0A3E920081D002EA24D7FAE434EEEE
:0E3E9C00FB74032AFCE43BFD90EF4FE0FEA315
:0C3EAA00E0FFE51024F9F8E62EFE08E623
:073EB6003FFF0EBE00010FEB
:0E3EBD008C828D83EEF0A3EFF074062AF5825E
:0E3ECB00E43BF5837401F0D0E053E080E5E0C5
:093ED90042A8D0E07582018003CB
:033EE200758200E6
:033EE500D01022D8
:053EE800AA82BA0800E7
:0C3EED00501BEA75F00FA424D7FAE4344F
:0C3EF900EEFB74062AF582E43BF583E43E
:053F0500F075820122AD
:043F0A00758200229A
:053F0E00AA82BA0800C0
:0C3F1300501DEA75F00FA424D7FAE43426
:0C3F1F00EEFB74062AF582E43BF583E01B
:073F2B00FA60047582012217
:043F32007582002272
:0A3F3600C010E581F5102407F581A5
:0C3F4000E5102404F8760090F0E5E0FBAA
:063F4C00BBFF03123D253E
:0D3F520090EF4FE02401F0A3E03400F0A850
:043F5F0010087600D0
:063F6300A81008B60800DA
:053F6900400302402AA4
:0A3F6E00A81008E675F00FA4FC246B
:0A3F7800D7FDE434EEFE74062DFFC1
:0D3F8200E43EFA8F828A83E0700302402340
:0C3F8F008D828E83A3A3A3A8100808E075
:0E3F9B00F6A3E008F690EF4FE0FBA3E0FAA8D3
:0C3FA900100808E6B5030908E6B502049C
:043FB5007401800112
:013FB900E423
:0C3FBA00606774072DFBE43EFFE5102457
:0E3FC60005F8A60308A6070876008D828E83F4
:0C3FD400E0FDA3E0FEA3E0FAC004E5104D
:0C3FE0002404F8E6C0E0E5102405F8E633
:0E3FEC00C0E008E6C0E008E6C0E08D828E83EB
:0E3FFA008AF0121E74AA82E58124FCF581D0A3
:0A40080004E5102404F8A602EC24DD
:0A401200D7FCE434EEFA74062CF536
:07401C0082E43AF583E4F0B1
:07402300A8100806023F632C
:06402A00851081D0102278
:01F07300FF9D
:024030007A0014
:0B403200EA75F00DA4FB24E6FCE4346A
:0C403D00F0FD74082CF582E43DF583E0F2
:0A404900FC6031EB24E6F582E4345C
:0C405300F0F583E0FBA3E0FCC002C0031A
:0A405F00C0047474C0E07440C0E0B7
:0B406900C003C00490000075F00022AE
:09407400D004D003D0020A80B58B
:04407D007582012225
:04408100AA827B0094
:0A408500EB75F00DA424E6FCE43412
:0C408F00F0FD74082CF582E43DF583E0A0
:09409B00FC6009ECB5020280038F
:0340A4000B80DEB0
:0A40A700EB75F00DA424E6FAE434F2
:0C40B100F0FB74082AF582E43BF583E084
:0C40BD00FC60097C008A828B838CF0225E
:0740C90090000075F00022D9
:0840D000C010858110AA8212C4
:0E40D8004081AA82AB83ACF0EA4B4C603A7494
:0D40E600022AFAE43BFB8A828B838CF012E5
:0B40F300ED1EFAA312ED1EFBC00374CB
:0A40FE0017C0E07441C0E0C002C02A
:0C41080003E51024FBF88682088683087B
:0341140086F02210
:08411700AA82D0038A82800312
:03411F00758200A6
:03412200D0102298
:0841250090EF6B1236387A00AE
:0A412D00EA75F00DA424E6FBE4346B
:0C413700F0FC74082BF582E43CF583E0FA
:0E414300FB6041EA600A90EF7BC00212363842
:02415100D0029A
:0A415300EA75F00DA424E6FBE43445
:0C415D00F0FC74082BF582E43CF583E0D4
:0E416900FB7C00C002C003C004740AC0E075F5
:0E4177008206123673158115811581D0020A59
:0241850080A612
:0A41870090EF7D1236387582012298
:0EEF6B004D6F64756C652073657475703A0D9A
:02EF79000A008C
:02EF7B00200074
:03EF7D000D0A007A
:02F074004FAAA1
:02F0760080AA6E
:09F078009AAD000001290100001D
:02F0810013CBAF
:02F083001ECBA2
:09F08500ADDB00000208000000F0
:02F08E005779B0
:02F09000AF7956
:0AF09200E47E0000081704000000EF
:0CF09C0000000000000000000000000068
:024191007A04AE
:0C419300EA14FB75F018A4FC2452F5821D
:0A419F00E434EFF583E4F0EC245261
:0C41A900FCE434EFFD74162CF582E43DBC
:0E41B500F583E4F0A3F08C828D83A3A3E4F0E5
:0E41C300A3F074132CF582E43DF583E4F0A321
:0E41D100F0A3F074062CF582E43DF583E4F0D3
:0641DF008B02EA70AF2222
:0A41E500C010E581F510240AF581F1
:0A41EF00AD82A810087600A81008A1
:0C41F90008E4F608F608F67FFFE5102445
:0442050005F8760042
:0C420900E5102405F8E675F005A4FBACF8
:0A421500F0E5102406F8EB241DF676
:0A421F00EC34F108F6E5102406F86F
:0E4229008682088683E0606FEF30E76B7A00D4
:074237008B06E5102406F8D8
:0C423E00C007E5102406F886820886837D
:0E424A00E0FFC3EA9FE433D0076042C007EEF6
:0A425800241DFFEC34F1FB0FBF0042
:02426200010B4E
:0E426400EA2FF582E43BF583E0FBB505047418
:03427200018001C7
:01427500E464
:0C427600D007601AE5102405F88607A8A0
:0A4282001008A602EE241DF582ECE0
:08428C0034F1F583E0FB8B0225
:034294000A80A7F6
:09429700E5102405F806024209B5
:0242A0007A00A2
:0342A200BA04005B
:0C42A500501AC007EA75F018A42452FB60
:0C42B100E434EFFF8B828F83E0D00760C5
:0442BD00030A80E18F
:0742C100EF30E70302449611
:0342C800BA040035
:0542CB004003024496CF
:0A42D000EA75F018A42452FAE43451
:0A42DA00EFFBA8100808A60208A6D2
:0C42E40003087600A8100808740626FAEB
:0E42F000E40836FB0886048A828B838CF0E497
:0C42FE0012E836A8100808740126FAE443
:0E430A000836FB0886048A828B838CF0EF1243
:0C431800E836A8100808740626FAE4082D
:0E43240036FB088604740B2AFAE43BFB8A82FF
:0E4332008B838CF0E412E836A3E412E836A880
:0C434000100808740426FAE40836FB0894
:0E434C0086048A828B838CF0E412E836A3E4A8
:0C435A0012E836A8100808740226FAE4E5
:0E4366000836FB0886048A828B838CF0E412F2
:08437400E836A3E412E836A8C4
:0C437C0010080886820886830886F0ED91
:0C43880012E836A8100808741626FAE4A3
:0D4394000836FB0886048A828B838CF0E5D6
:0C43A1001024FCF8E612E836A308E6122F
:0743AD00E836A8100808E53E
:0C43B400102408F9741326F7E4083609F9
:0C43C000F70809E6F7E5102408F88682EB
:0E43CC000886830886F012ED1EFDA312ED1E7A
:0C43DA00FEA312ED1EFAED4E4A7040E505
:0A43E6001024FCF8E608467036E5E6
:0C43F000102408F8C0077403C0E07582B8
:0E43FC000512187DAD82AE83AAF01581D007A0
:0C440A00E5102408F886820886830886E6
:0D441600F0ED12E836A3EE12E836A3EA122C
:02442300E83679
:0D442500C2D575F005EF30E704B2D5F40400
:0E443200A430D50AF42401C5F0F43400C5F01E
:0A444000241DFA74F135F0FB0ABAEE
:03444A0000010B63
:0C444D00A81008E62AF582E43BF583E0A5
:0E445900FAF582124081AA82AB83ACF0EA4BE6
:0E4467004C602C740A2AFAE43BFB8A828B8399
:0C4475008CF012ED1EFA6019A810080867
:0E448100740626FBE40836FC0886058B828C48
:07448F00838DF0EA12E8360C
:0C449600A810080886820886830886F0BB
:0644A200851081D01022FC
:0D44A800AA82AB83ACF0C002C003C00412B6
:0E44B5004661AD82D004D003D002ED20E70EA8
:0E44C3008A828B838CF0E412E8367582012227
:0444D10075820022CE
:0A44D500C010858110C082C083C0B2
:0C44DF00F0E5812409F581E51024FBF8CC
:0C44EB008605088606088607E5102404F4
:0D44F700F8740B2DF6E43E08F608A607E564
:0C450400102404F886820886830886F0E4
:0E45100012ED1EFAA312ED1EFB4A6011BAFE58
:06451E0005BB000280094C
:09452400C374BF9A74F09B5006A9
:06452D0075820002465BEE
:0C453300A81008B6000A08B6000608B67A
:04453F0000028041B5
:0A454300C005C006C007A81008E577
:0C454D00102407F9740226F7E408360970
:0C455900F70809E6F7E5102407F8868251
:0E4565000886830886F012ED1EFDA312ED1EDF
:09457300FEE4BD0004BE000104D9
:08457C00D007D006D00570063F
:0645840075820002465B97
:0E458A008D828E838FF012ED1EFA605CC005EC
:0C459800C006C007A81008740626FDE449
:0D45A4000836FE0886078D828E838FF01288
:0E45B100ED1EFBD007D006D005EB6004EAB586
:0245BF00032CCB
:0C45C100A81008740626FAE40836FB086F
:0E45CD0086047403C0E0E4C0E0C005C006C070
:0E45DB00078A828B838CF012EB46E58124FB6D
:0445E900F5818022B6
:0545ED007582008069E9
:0C45F200126248AA82A81008740126FB7F
:0E45FE00E40836FC0886058B828C838DF0EA7B
:03460C0012E8367B
:0C460F00E5102404F886820886830886E3
:0B461B00F012ED1EFAA312ED1EFBE5ED
:0C462600102407F886820886830886F0BE
:0A463200EA12E836A3EB12E836A8FE
:0C463C001008740426FCE40836FD088613
:0E464800068C828D838EF0EA12E836A3EB1208
:05465600E83675820149
:06465B00851081D0102241
:08466100AA82AB83ACF07D00DE
:03466900BD04008D
:0C466C00501FED75F018A42452FEE43439
:0C467800EFFF7800EAB5060AEBB5070674
:06468400ECB5000280030A
:03468A000D80DCC4
:03468D00BD040069
:0546900050038D8222A1
:044695007582FF2209
:0A469900C010858110C082C083E5C7
:0C46A300812411F581E5102404F8E4F6F0
:0C46AF0008F608F6E51024FBF886070862
:0C46BB008604088605E5102408F8740B3E
:0C46C7002FF6E43C08F608A605E51024D8
:0E46D30008F886820886830886F012ED1EFE27
:0C46E100A312ED1EFA4E6008A81008E6B7
:0446ED000846700902
:0946F10090000075F0000248F988
:0E46FA008F828C838DF012ED1EFA24FB403768
:07470800EA2A2A90470F7313
:07470F0002473F02472402AC
:06471600473602472DE5C5
:08471C00102407F87608802242
:09472400E5102407F8760880195D
:09472D00E5102407F87604801061
:09473600E5102407F87602800763
:07473F00E5102407F87600E5
:094746007B00A8100808087600A9
:08474F00A810080808B60400D8
:0547570040030248A12F
:0C475C00C003A810080808E675F018A4B7
:0A476800C0E0E510240BF8D0E024B7
:0847720052F6E434EF08F6E50D
:0C477A0010240BF88682088683A3A3A3FA
:0C478600A3E0FBA3E0FAA81008E6B503CE
:0A4792000908E6B502047401800175
:01479C00E438
:07479D00D0037003024891F4
:0C47A400C003E510240BF8740626F6E4B0
:0C47B0000836F6E510240BF8740B26F513
:0C47BC0082E40836F583E510240DF8E0D7
:0C47C800F6A3E008F6E5102408F886824D
:0E47D4000886830886F012ED1EFEA312ED1E6D
:0C47E200FAE510240DF8E6B5060908E61B
:0747EE00B502047401800113
:0147F500E4DF
:0747F600D00370030248919B
:0B47FD00E5102407F8E66071C003E53A
:0A480800102407F8E510240DF9E66E
:0C481200F7097700E510240FF874012F5F
:0C481E00F6E43C08F608A605E510240BA3
:0E482A00F8740126FAE40836FB7E00C004C0D4
:0C48380005C007E510240DF8E6C0E008FC
:0C484400E6C0E0E510240FF8E6C0E00834
:0E485000E6C0E008E6C0E08A828B838EF0129C
:0E485E00EA89AA82AB83E58124FBF581D007AD
:0A486C00D005D004EA4BD003701B06
:0A487600EB75F018A42452FAE434A4
:0A488000EFFEE5102404F8A602087C
:07488A00A60608760080106D
:0A489100A81008080806A81008087F
:06489B0008860302474FEE
:0C48A100E5102404F8E608460846703FC5
:0148AD00FA10
:0348AE00BA040049
:0C48B1005039EA75F018A42452FBE434DE
:0C48BD00EFFC8B828C83A3A3E0FDA3E042
:0C48C900FEA81008E6B5050708E6B506D5
:0348D5000280025C
:0248D800800F4F
:0C48DA00E5102404F8A60308A6040876E4
:0348E6000080034C
:0348E9000A80C280
:0C48EC00E5102404F88682088683088604
:0148F800F0CF
:0648F900851081D01022A1
:0A48FF00C010858110C082C083C084
:0E490900F0E5812408F581900014125D1DADCB
:0C49170082AE83AFF0E5102404F8A60582
:0E49230008A60608A607ED4E4F7003024B4F84
:0C493100E5102404F886820886830886BE
:0C493D00F0A91009E712E836A309E71200
:09494900E836A309E712E836E59F
:0A495200102407F8E4F608F6A81098
:0E495C0008740126FFE40836FD0886067A007E
:0E496A008F828D838EF012ED1EFB75F005A47A
:0A497800FBACF0EB241DF582EC34DB
:0C498200F1F583C007C005C006E0FDC3CE
:0E498E00EA9DE433D006D005D007605DC00777
:0A499C00C005C006EB241DFBEC343F
:0749A600F1FC0BBB00010C4A
:0E49AD00EA2BF582E43CF583E0FBF582C002C4
:0E49BB00C006C007124081AB82AC83ADF0D0C5
:0E49C90007D006D00274092BFBE43CFC8B8265
:0C49D7008C838DF012ED1EFB7C00E510BF
:0E49E3002407F8EB26F6EC0836F60AD006D0CC
:0649F10005D00702496A2F
:0C49F700E5102404F8742026FAE40836C9
:0C4A0300FB0886048A828B838CF0E5108F
:0E4A0F002407F8E612E836A308E612E836E5BA
:0C4A1D00102404F8742226FAE40836FB8A
:0C4A29000886048A828B838CF0E5102440
:0D4A350007F8E612E836A308E612E836E5B9
:0C4A4200102404F8741D26FAE40836FB6A
:0E4A4E000886048A828B838CF0740B12E83683
:0C4A5C00E5102404F8741E26FAE4083665
:0E4A6800FB0886048A828B838CF0E412E83609
:0C4A7600E5102404F8741F26FAE408364A
:0D4A8200FB0886048A828B838CF07401127D
:0C4A8F00E836E5102404F8742626FAE44A
:0E4A9B000836FB08860474012AFDE43BFE8CFD
:0E4AA900078D828E838FF0E412E83674022AA5
:0E4AB700FDE43BFE8C078D828E838FF0E412AF
:0E4AC500E83674052AFDE43BFE8C078D828ED8
:0E4AD300838FF0E412E8368A828B838CF0E445
:0C4AE10012E836A81008740626FAE40853
:0C4AED0036FB088604E5102404F874036E
:0E4AF90026FDE40836FE088607740DC0E0E4D2
:0E4B0700C0E0C002C003C0048D828E838FF018
:0C4B150012EB46E58124FBF581E510243D
:0E4B210004F8741026FAE40836FB08860474C3
:0B4B2F000DC0E0E4C0E074D2C0E074F0
:0C4B3A00F0C0E0E4C0E08A828B838CF0C5
:094B460012EB46E58124FBF58128
:0C4B4F00E5102404F8868208868308869E
:074B5B00F0851081D010224B
:0E4B6200AA82AB83ACF0EA4B4C60098A828BCE
:064B7000838CF0125F4A85
:044B76007582012221
:0A4B7A00C010858110C082C083C006
:0C4B8400F0058105810581A810088682DB
:0E4B90000886830886F0124661E582FD30E754
:074B9E0006758200024E4182
:0C4BA500A81008740126FDE40836FE0884
:0E4BB10086078D828E838FF012ED1EFDC005EB
:0D4BBF00126248AE82D005EDB506028003FB
:034BCC00024C5642
:0C4BCF00E51024F8F88605088606088624
:0E4BDB000774262DFAE43EFB8F048A828B833A
:0C4BE9008CF0740112E836E5102404F88A
:0C4BF500741E2DF6E43E08F608A607A882
:0B4C0100100886820886830886F012E7
:0C4C0C00ED1EFAE5102404F886820886EC
:0E4C1800830886F0EA12E836741F2DFAE43E97
:0E4C2600FB8F048A828B838CF0740112E836B7
:0E4C3400741D2DFAE43EFB8F048A828B838C64
:0D4C4200F0740B12E8368D828E838FF01215
:074C4F006014AA82024E412D
:0C4C5600A81008740226FBE40836FC08D5
:0E4C620086058B828C838DF012ED1EFBA31253
:0C4C7000ED1EFCBB0057BC0054A810084F
:0E4C7C00740426FDE40836FE0886078D828E3D
:0E4C8A00838FF012ED1EFDA312ED1EFE8D03B2
:0C4C98008E04EB4C702FA81008868208D8
:0C4CA40086830886F0124FF8A8100874F0
:0E4CB0000426FDE40836FE0886078D828E83FA
:0E4CBE008FF012ED1EFDA312ED1EFE8D038E73
:014CCC0004E3
:0A4CCD00C003C004E51024F8F8E568
:0C4CD700102404F9E6F70809E6F70809C4
:0C4CE300E6F7E5102404F88682088683BA
:0C4CEF000886F0A91009E712E836A309B6
:0B4CFB00E712E836A309E712E836E5EF
:0C4D0600102404F8741026FBE40836FCAE
:0E4D12000886058B828C838DF012ED1ED00476
:0C4D2000D003703EE5102404F874102647
:0D4D2C00FDE40836FE0886070DBD00010EEF
:0C4D3900C003C0047408C0E0E4C0E074D3
:0A4D4500D3C0E074F0C0E0E4C0E069
:0E4D4F008D828E838FF012EB46E58124FBF5FA
:054D5D0081D004D00329
:0C4D6200E5102404F8741026FDE4083667
:0E4D6E00FE088607740B2DFDE43EFE8D828E3E
:0D4D7C00838FF0EB12E836A3EC12E836E569
:0C4D8900102404F8741D26FBE40836FC1E
:0E4D95000886058B828C838DF0740B12E83635
:0C4DA300E5102404F8741F26FBE4083619
:0D4DAF00FC0886058B828C838DF074011248
:0C4DBC00E836E5102404F8741E26FBE421
:0E4DC8000836FC0886058B828C838DF0E41281
:0C4DD600E836E51024FBF8E60846084625
:0C4DE200603E7A01E5102404F8740326FA
:0E4DEE00FBE40836FC088605C002740DC0E028
:0C4DFC00E4C0E0E51024FBF8E6C0E0088D
:0E4E0800E6C0E008E6C0E08B828C838DF012DD
:0C4E1600EB46E58124FBF581D002800210
:024E22007A0014
:0C4E2400BA0116E5102404F88682088606
:0D4E3000830886F0126014AB828B028002B2
:024E3D007A00F9
:024E3F008A8265
:064E4100851081D0102253
:0A4E4700C010858110AA82AB83AC75
:0C4E5100F074062AFDE43BFE8C07E5101F
:0E4E5D0024FBF8E6C0E008E6C0E008E6C0E08E
:0D4E6B00C005C006C0078A828B838CF01240
:0D4E78004B7AAA82E58124FAF5818A82D066
:024E85001022F9
:0A4E8700C010858110AA82AB83AC35
:0E4E9100F074062AFDE43BFE8C07C002C0034D
:0C4E9F00C004740DC0E0E4C0E0E5102485
:0E4EAB00FBF8E6C0E008E6C0E008E6C0E08DD7
:0E4EB900828E838FF012EB46E58124FBF5819B
:0E4EC700D004D003D00274022AFDE43BFE8C1E
